:020000040800F2
:1000000000000220A12200086522000867220008E3
:10001000692200086B2200086D2200080000000021
:100020000000000000000000000000006F22000837
:1000300071220008000000007322000875220008E9
:10004000F1220008F1220008F1220008F122000844
:10005000F1220008F122000845060008F1220008FC
:10006000F1220008F1220008F1220008F122000824
:10007000F1220008F1220008F1220008F122000814
:100080007D220008F1220008F1220008F122000878
:10009000F1220008F1220008F1220008F1220008F4
:1000A000F1220008F1220008F1220008F1220008E4
:1000B000F1220008F1220008F1220008F1220008D4
:1000C000F1220008F1220008F1220008F1220008C4
:1000D000F1220008F1220008F1220008F1220008B4
:1000E000F1220008F1220008F1220008F1220008A4
:1000F000F1220008F1220008F1220008F122000894
:10010000F1220008F1220008F1220008F122000883
:10011000F1220008F1220008F1220008F122000873
:10012000F1220008F1220008F1220008F122000863
:10013000F12200080000000000000000F122000889
:10014000F1220008F1220008F1220008F122000843
:10015000F1220008F1220008F1220008F122000833
:10016000F1220008F1220008F1220008F122000823
:10017000F1220008F1220008F1220008000000002E
:1001800000000000F1220008000000000000000054
:10019000F12200080000000000000000F122000829
:1001A000000000000000000000000000F122000834
:1001B000F1220008F1220008F1220008F1220008D3
:0401C000F122000820
:1001C40053B94AB9002908BF00281CBF4FF0FF31BA
:1001D4004FF0FF3000F00CB8ADF1080C6DE904CE1F
:1001E40002F0B2F8DDF804E0DDE9022304B0704760
:1001F400704700BF10B5054C237833B9044B13B1D5
:100204000448AFF300800123237010BD543600204E
:10021400000000004426000808B5034B1BB1034945
:100224000348AFF3008008BD0000000058360020EA
:100234004426000882B000EB40000023019304E050
:1002440000BF00BF019B01330193019B8342F7D39D
:1002540002B0704710B51420FFF7ECFF094CA369F6
:1002640043F40043A3611420FFF7E4FFA36943F0C0
:100274000043A3611420FFF7DDFFA36943F40043A7
:10028400A36110BD0008024010B504463D4A9369BD
:1002940043F48043936110F0800F41D13A4A93694B
:1002A40043F00043936114F0400F40D0364A936901
:1002B40043F48053936114F0200F3ED0334A936982
:1002C40043F40073936114F0100F3CD02F4A9369E8
:1002D40043F480739361FFF7BDFF14F0080F38D027
:1002E400294A936943F40043936114F0040F36D010
:1002F400254A936943F48053936114F0020F34D078
:10030400224A936943F40073936114F0010F32D0CD
:100314001E4A936943F480739361FFF79BFF10BDFA
:10032400A2F50062936943F400439361BBE7164A64
:10033400936943F080539361BDE7144A936943F092
:1003440000739361BFE7114A936943F0807393612B
:10035400C1E70D4A936943F000439361C5E70A4A34
:10036400936943F080539361C7E7084A936943F064
:1003740000739361C9E7054A936943F080739361FD
:10038400CBE700BF00080240000002400004024026
:1003940038B50546002403E0FFF776FF0134E4B2E4
:1003A400285D0028F8D138BD10B504463F4A93694A
:1003B40043F08043936110F0800F45D13C4A936928
:1003C40043F00043936114F0400F44D0384A9369DA
:1003D40043F48053936114F0200F42D0354A93695B
:1003E40043F40073936114F0100F40D0314A9369C1
:1003F40043F480739361FFF72DFF14F0080F3CD092
:100404002B4A936943F40043936114F0040F3AD0E8
:10041400274A936943F48053936114F0020F38D050
:10042400244A936943F40073936114F0010F36D0A6
:10043400204A936943F480739361FFF70BFF40F6FE
:10044400B830FFF7F7FE10BDA2F50062936943F4DC
:1004540000439361B7E7164A936943F0805393616D
:10046400B9E7144A936943F000739361BBE7114AF7
:10047400936943F080739361BDE70D4A936943F038
:1004840000439361C1E70A4A936943F0805393613F
:10049400C3E7084A936943F000739361C5E7054ACB
:1004A400936943F080739361C7E700BF000802407B
:1004B400000002400004024008B5194B1A6B42F0D8
:1004C40001021A631A6B42F002021A631A6B42F0B9
:1004D40004021A63134A136843F08243136002F55B
:1004E4008062136843F4A023136002F580621368EA
:1004F40043F0A043136047F23050FFF79BFE3320D4
:10050400FFF752FF3220FFF74FFF0C20FFF74CFF9D
:100514002820FFF749FF0120FFF746FF08BD00BF71
:1005240000380240000002402DE9F04F89B003ADCD
:1005340000240394049405940694079400942F4B88
:100544001A6B42F080021A631A6B02F08002009266
:10055400009A01941A6B42F001021A631A6B02F0BA
:1005640001020192019A02941A6B42F002021A6388
:100574001B6B03F002030293029B4FF4404BCDF834
:100584000CB001270497DFF880A02946504600F0FC
:10059400FFFC4FF44079CDF80C902946184800F040
:1005A400F7FC4FF41048CDF80C80164E294630461F
:1005B40000F0EEFC22465946504600F0D9FD224692
:1005C40049460F4800F0D4FD22464146304600F02B
:1005D400CFFD03974FF488130493059729463046BB
:1005E40000F0D6FC22460221062000F093FA0620F1
:1005F40000F0A0FA09B0BDE8F08F00BF0038024057
:1006040000040240000002400008024000B583B02C
:1006140000210191094B1A6B42F400121A631B6BFF
:1006240003F400130193019B0A46102000F072FAB0
:10063400102000F07FFA03B05DF804FB003802409C
:1006440070B5012000F09CFD00F00AFA224B1B68F3
:10065400C31AC82B00D870BD1F4B18601F4D2A68E1
:10066400D36823F40073D3601D4E304600F090FB32
:100674001C4C237801331C4A82FB031202EB420216
:10068400A3EB4203DBB2237020788023174A12685D
:10069400174951F82010304600F046FB2A68D36809
:1006A40043F40073D36001222021124800F060FD5E
:1006B4000120FFF779FE0220FFF776FE0E48FFF7D0
:1006C40067FEC020FFF770FE22780C4B53F822001F
:1006D400FFF75EFEBFE700BF74360020203700201E
:1006E4007836002070360020ABAAAA2A30000020F9
:1006F40018000020000002405C26000800000020D2
:1007040072B6FEE700B58FB000230A930B930C93E7
:100714000D93089309930193029303930493059310
:100724000693079336484FF080420260436083602B
:10073400344A1268013AC2600361836101F05AFAD3
:10074400002850D14FF480530A930AA92C4801F091
:10075400B7FB002849D12A4801F078FA002846D18D
:1007640000230893099308A9254801F033FD0028C4
:100774003FD10022019202920392059201A92048DE
:1007840001F0F4FA002836D1002300931E4A116BBD
:1007940041F400111163126B02F400120092009AEA
:1007A4001A481B4A02604FF0C062426040228260D5
:1007B400C3604FF4806202614FF4805242614FF48F
:1007C400804282614FF48072C2614FF4003202624F
:1007D400436200F043FA80B9094A0C4B53629A63AE
:1007E4000FB05DF804FBFFF78BFFFFF789FFFFF7FE
:1007F40087FFFFF785FFFFF783FFFFF781FF00BF48
:1008040020370020340000200038024078360020D1
:100814008860024000B58FB000230A930B930C93B9
:100824000D930893099301930293039304930593FF
:10083400069307931E481F4A02604360836040F694
:10084400FF72C2600361836101F0D4F928BB4FF4E5
:1008540080530A930AA9164801F032FBF8B91448E8
:1008640001F020FAE8B900230893099308A9104875
:1008740001F0B0FCB8B96023019300230293039301
:100884000593082201A90A4801F09FFA68B90848AB
:1008940000F0ECFC0FB05DF804FBFFF731FFFFF74D
:1008A4002FFFFFF72DFFFFF72BFFFFF729FF00BFF7
:1008B400D83600200004004010B594B007AC3422B0
:1008C4000021204601F013FD0023029303930493B7
:1008D400059306930093194A116C41F080511164F9
:1008E400126C02F080520092009A019314490A6833
:1008F40022F4404242F480420A600A6802F4404210
:100904000192019A0222079201220A9210220B926A
:100914000D93204600F01AFE60B90F2302930021C4
:10092400039104910591069102A800F0CBFC18B93B
:1009340014B010BDFFF7E4FEFFF7E2FE00380240FA
:100944000070004008B500F065F8FFF7B5FFFFF749
:10095400EBFDFFF75BFEFFF7D5FEFFF75BFF08211A
:10096400124801F0B9FB124C0021204601F036FB7D
:100974008023104A12681049104800F0D5F9FFF797
:100984009BFD0120FFF710FD0220FFF70DFD0C4831
:10099400FFF7FEFCC020FFF707FD0A48FFF7F8FC4D
:1009A4002268D36843F40073D360FEE7D83600208E
:1009B4002037002030000020483400207836002002
:1009C400682600087426000810B504460E4B1A78F1
:1009D4004FF47A73B3FBF2F30C4A1068B0FBF3F0F4
:1009E40000F0ACF868B90F2C01D901200AE000220C
:1009F40021464FF0FF3000F08DF8054B1C600020BD
:100A040000E0012010BD00BF483600205036002011
:100A14004C36002008B50B4B1A6842F400721A6079
:100A24001A6842F480621A601A6842F480721A608A
:100A3400032000F05DF80F20FFF7C6FF00F0AEFBC7
:100A4400002008BD003C0240034A1168034B1B7898
:100A54000B441360704700BF6837002048360020FD
:100A6400014B1868704700BF68370020002807DB77
:100A740000F01F02400901239340024A42F820304B
:100A8400704700BF00E100E0002808DB0901C9B29B
:100A940000F1604000F5614080F80013704700F0F9
:100AA4000F000901C9B2014B1954704714ED00E05D
:100AB40000B500F00700C0F1070CBCF1040F28BF1B
:100AC4004FF0040C031D062B0FD9C31E4FF0FF3E3D
:100AD4000EFA0CF021EA000199400EFA03FE22EA14
:100AE4000E0241EA02005DF804FB0023EEE7000079
:100AF400074AD36823F4E0631B041B0C000200F4D0
:100B0400E060034343F0BF6343F40033D3607047B2
:100B140000ED00E010B50446054BD868C0F3022090
:100B2400FFF7C6FF01462046FFF7AEFF10BD00BF2A
:100B340000ED00E008B5FFF799FF08BD0138B0F1FA
:100B4400807F0BD24FF0E0235861054AF02182F8F0
:100B540023100020986107221A6170470120704712
:100B640000ED00E030B405682C6824F480242C6087
:100B7400046863608368402B05D003689960036848
:100B8400DA6030BC704703689A600368D960F8E79C
:100B940010B40368D9B210390A4AA2FB01421209FF
:100BA400094CA25CC2655F2907D96FF309030433BA
:100BB4008365806D5DF8044B70476FF309038365AB
:100BC400F7E700BFABAAAAAAAC260008836A826929
:100BD40092B9012B0AD0022B02D00BB1002070472E
:100BE400C36A13F0807F28D100207047C36AB3F131
:100BF400C07F24D000207047B2F5005F09D0022BDB
:100C040025D9032B25D1C36A13F0807F23D100207B
:100C14007047032B03D8DFE803F01404140A002000
:100C24007047C36A13F0807F0DD100207047C36AF8
:100C3400B3F1C07F09D00020704701207047012024
:100C44007047012070470120704701207047012040
:100C540070470020704701207047000070B50446BB
:100C6400FFF7FEFE002C5BD00546022384F83530E6
:100C7400002384F834302268136823F001031360DE
:100C840023681A6812F0010F0AD0FFF7E9FE431B2C
:100C9400052BF5D920236365032084F8350070BD46
:100CA4001A68204911406268A0680243E068024360
:100CB4002069024360690243A0690243E069024378
:100CC400206A02430A43616A04291ED01A60266816
:100CD400756925F00705636A1D43042B07D1A36AD0
:100CE4001D43E36A1BB12046FFF770FF90B975619D
:100CF4002046FFF74DFFE26D3F23934083600020C1
:100D04006065012384F83530C9E7E16A206B01434B
:100D14000A43DBE740236365012084F83500BEE71E
:100D24000120BCE73F8010F038B50446856D90F88B
:100D3400340001282AD0012084F8340094F83500C6
:100D4400012804D0002384F83430022038BD022066
:100D540084F83500002060652046FFF703FFE26D4C
:100D64003F239340AB602268136843F0160313607B
:100D7400236C23B12268136843F0080313602268CC
:100D8400136843F0010313600020DFE70220DDE76E
:100D940090F83530022B03D080234365012070473F
:100DA400052380F835300268136823F001031360CB
:100DB40000207047F0B583B0044600230193724BC2
:100DC4001D68724BA3FB0535AD0A876D3E68C26D85
:100DD40008239340334210D003681A6812F0040FBA
:100DE4000BD01A6822F004021A60C26D08239340E3
:100DF400BB60436D43F001034365E26D01239340FF
:100E0400334209D02268526912F0800F04D0BB60CB
:100E1400636D43F002036365E26D04239340334240
:100E240009D02268126812F0020F04D0BB60636D0F
:100E340043F004036365E26D10239340334224D0EE
:100E44002268126812F0080F1FD0BB6023681A686A
:100E540012F4802F0DD01B6813F4002F04D1236CDF
:100E64009BB12046984710E0A36C73B12046984785
:100E74000BE01A6812F4807F03D11A6822F008028A
:100E84001A60236C0BB120469847E26D20239340EF
:100E9400334254D02268126812F0100F4FD0BB6056
:100EA40094F83530052B0ED023681A6812F4802F7D
:100EB40033D01B6813F4002F2AD1636C002B3ED06F
:100EC400204698473BE02268136823F0160313601A
:100ED4002268536923F080035361236CA3B1226811
:100EE400136823F008031360E26D3F239340BB6053
:100EF400012384F83530002384F83430236D002B2B
:100F04003FD0204698473CE0A36C002BE7D1EBE7A9
:100F1400E36BA3B12046984711E01A6812F4807F6E
:100F240009D11A6822F010021A60012384F83530BE
:100F3400002384F83430E36B0BB120469847636D8B
:100F4400FBB1636D13F0010F17D0052384F835301E
:100F54002268136823F001031360019B013301939A
:100F6400AB4204D823681B6813F0010FF5D10123A9
:100F740084F83530002384F83430E36C0BB1204618
:100F8400984703B0F0BD00BF50360020B5814E1B1A
:100F940000230F2B00F2E38070B582B065E0856812
:100FA4004FEA430E032404FA0EF425EA0405CC6840
:100FB40004FA0EF42C438460446824EA02044A6868
:100FC400C2F300129A40224342605CE0DC08083419
:100FD40050F8242003F00705AD004FF00F0E0EFA71
:100FE40005FE22EA0E0E0A69AA4042EA0E0240F801
:100FF40024205CE0062200E0002202FA0EF22A43DA
:101004000234574D45F82420564A94686FEA0C027E
:1010140024EA0C054E6816F4801F01D04CEA04053E
:10102400504CA560E46802EA04054E6816F4001FFB
:1010340001D04CEA04054B4CE560646802EA0405FF
:101044004E6816F4003F01D04CEA0405454C656037
:10105400246822404D6815F4803F01D04CEA040214
:10106400404C226001330F2B77D801229A400C6840
:1010740004EA020C32EA0404F4D14C6804F00304D8
:10108400013C012C8BD94A6802F00302032A09D0DF
:10109400C4685D000322AA4024EA02048A68AA40C4
:1010A4002243C2604A6802F00302022A8ED0046816
:1010B4004FEA430E032202FA0EF224EA02044A68BB
:1010C40002F0030202FA0EF2224302604A6812F4AA
:1010D400403FC7D000220192234A546C44F4804418
:1010E4005464526C02F480420192019A9C08A51C3B
:1010F4001B4A52F8255003F0030E4FEA8E0E0F22BE
:1011040002FA0EF225EA0205184A90423FF474AF3F
:1011140002F58062904216D002F58062904214D0AB
:1011240002F58062904212D002F58062904210D0A3
:1011340002F5806290420ED002F5806290423FF444
:1011440059AF072259E7012257E7022255E7032244
:1011540053E7042251E705224FE702B070BD704700
:1011640000380140003C01400038024000000240C9
:101174000AB18161704709048161704770470000BA
:1011840008B5054B5B69034200D108BD024B5861A9
:10119400FFF7F4FFF9E700BF003C014082B00021F3
:1011A40000910B4B5A6C42F480425A645A6C02F41C
:1011B40080420092009A01911A6C42F080521A64A3
:1011C4001B6C03F080530193019B02B0704700BF76
:1011D4000038024010B582B00368B3F1804F04D0E8
:1011E4001E4A93422CD002B010BD04460023009343
:1011F4001B4A116C41F001011164126C02F00102EE
:101204000092009A1748184A02604FF0C062426088
:101214008360C3604FF4806202614FF48052426184
:101224004FF480428261C36103624362FFF716FD9B
:1012340018B90C4B63629C63D5E7FFF761FAF8E7D2
:1012440000230193064B1A6C42F002021A641B6CD1
:1012540003F002030193019BC5E700BF00040040B3
:1012640000380240783600208860024000B587B01C
:1012740000230193029303930493059302680E4B96
:101284009A4202D007B05DF804FB002300930B4B95
:101294001A6B42F002021A631B6B03F00203009301
:1012A400009B0123019302230293059301A904489F
:1012B400FFF76EFEE6E700BF00040040003802407E
:1012C40000040240002800F09B8070B50D460446DF
:1012D4004F4B1B6803F00F038B4208D2CBB24C4A2E
:1012E4001370136803F00F038B4240F08B80236864
:1012F40013F0020F17D013F0040F04D0454A93687B
:1013040043F4E0539360236813F0080F04D0414A78
:10131400936843F4604393603E4A936823F0F00378
:10132400A1680B439360236813F0010F32D0636804
:10133400012B21D09A1E012A25D9364A126812F0AF
:10134400020F61D033498A6822F0030213438B6091
:10135400FFF786FB06462F4B9B6803F00C0362687D
:10136400B3EB820F16D0FFF77BFB801B41F288336F
:101374009842F0D9032042E0264A126812F4003F52
:10138400E0D101203BE0234A126812F0007FD9D15A
:10139400012034E01E4B1B6803F00F03AB4207D956
:1013A400EAB21B4B1A701B6803F00F03AB422DD13A
:1013B400236813F0040F06D0164A936823F4E0530D
:1013C400E1680B439360236813F0080F07D0114AB8
:1013D400936823F46043216943EAC103936000F0F6
:1013E40021F80C4B9B68C3F303130B4AD35CD8401E
:1013F4000A4B18600A4B1868FFF7E6FA002070BD24
:10140400012070470120FAE70120F8E70120F6E700
:10141400003C024000380240B42600085036002048
:101424004C36002008B5464B9B6803F00C03082B90
:1014340005D00C2B43D0042B7FD1424819E0404BFC
:101444005A6802F03F025B6813F4800F12D03C4BE1
:101454005968C1F388113B480023A1FB0001FEF742
:10146400AFFE374B5B68C3F3014301335B00B0FB52
:10147400F3F008BD324B5868C0F388104FEA401CA3
:10148400BCEB000C6EEB0E0E4FEA8E1343EA9C632A
:101494004FEA8C11B1EB0C0163EB0E03DB0043EA62
:1014A4005173C90011EB000C43F1000399020023AE
:1014B4004FEA8C2041EA9C51FEF782FED1E7204B93
:1014C4005A6802F03F025B6813F4800F10D01C4B83
:1014D4005968C1F388111B480023A1FB0001FEF7E2
:1014E4006FFE174B5B68C3F30273B0FBF3F0C0E706
:1014F400134B5868C0F388104FEA401CBCEB000C37
:101504006EEB0E0E4FEA8E1343EA9C634FEA8C1186
:10151400B1EB0C0163EB0E03DB0043EA5173C9002A
:1015240011EB000C43F10003990200234FEA8C20D5
:1015340041EA9C51FEF744FED3E7034899E700BF14
:101544000038024040787D010024F400002800F0B7
:10155400018270B582B00446036813F0010F41D0D4
:10156400994B9B6803F00C03042B32D0964B9B6879
:1015740003F00C03082B27D0934B9B6803F00C0358
:101584000C2B59D06368B3F5803F5BD0B3F5A02F23
:101594005ED08D4B1A6822F480321A601A6822F4E5
:1015A40080221A606368002B5CD0FFF759FA054665
:1015B400854B1B6813F4003F14D1FFF751FA401B0D
:1015C4006428F5D90320CCE17F4B5B6813F4800FCA
:1015D400D2D07D4B1B6813F4003F03D06368002B0B
:1015E40000F0BA81236813F0020F60D0764B9B6839
:1015F40013F00C0F4AD0744B9B6803F00C03082BB8
:101604003FD0714B9B6803F00C030C2B69D0E3684B
:10161400002B75D06D4B01221A60FFF721FA0546A5
:10162400694B1B6813F0020F61D1FFF719FA401BD5
:101634000228F5D9032094E1634B5B6813F4800F0F
:10164400A0D0C6E7604A136843F480331360A9E767
:101654005D4B1A6842F480221A601A6842F48032A0
:101664001A609FE7FFF7FCF90546574B1B6813F414
:10167400003FB7D0FFF7F4F9401B6428F5D90320E5
:101684006FE1514B5B6813F4800FBAD14E4B1B686A
:1016940013F0020F03D0E368012B40F05F814A4A44
:1016A400136823F0F803216943EAC1031360236834
:1016B40013F0080F49D06369002B33D0434B012248
:1016C400C3F8802EFFF7CCF905463F4B5B6F13F050
:1016D400020F3AD1FFF7C4F9401B0228F5D90320C1
:1016E4003FE1394B5B6813F4800F90D1CEE7364A63
:1016F400136823F0F803216943EAC1031360D6E7B2
:10170400324B00221A60FFF7ABF905462E4B1B68DB
:1017140013F0020FCBD0FFF7A3F9401B0228F5D931
:1017240003201EE1294B0022C3F8802EFFF798F90D
:101734000546254B5B6F13F0020F06D0FFF790F9B7
:10174400401B0228F5D903200BE1236813F0040F92
:1017540076D01D4B1B6C13F0805F33D100230193B3
:10176400194B1A6C42F080521A641B6C03F08053BC
:101774000193019B0125164B1B6813F4807F29D02C
:10178400A368012B3AD0052B3ED00F4B1A6F22F0E1
:1017940001021A671A6F22F004021A67A368002B69
:1017A4003CD0FFF75DF90646074B1B6F13F0020FA1
:1017B40045D1FFF755F9801B41F288339842F3D99C
:1017C4000320CEE00025D6E700380240000047425F
:1017D400007000406B4A136843F480731360FFF792
:1017E4003FF90646674B1B6813F4807FC8D1FFF7A7
:1017F40037F9801B0228F5D90320B2E0624A136F3F
:1018040043F001031367C9E75F4B1A6F42F0040208
:101814001A671A6F42F001021A67BFE7FFF720F94F
:101824000646594B1B6F13F0020F08D0FFF718F947
:10183400801B41F288339842F3D9032091E0EDB93B
:10184400A369002B00F08C804F4A926802F00C02CE
:10185400082A54D0022B17D04C4B00221A66FFF7EB
:10186400FFF80446484B1B6813F0007F45D0FFF790
:10187400F7F8001B0228F5D9032072E0424A136CE2
:1018840023F080531364DBE7404B00221A66FFF712
:10189400E7F805463C4B1B6813F0007F06D0FFF7C2
:1018A400DFF8401B0228F5D903205AE0E369226AD5
:1018B4001343626A43EA8213A26A5208013A43EA72
:1018C4000243E26A43EA0263226B43EA02732E4A4A
:1018D40053602E4B01221A66FFF7C2F804462A4BC6
:1018E4001B6813F0007F06D1FFF7BAF8001B02282B
:1018F400F5D9032035E0002033E0002031E0012B4E
:1019040031D0214B5B6803F48001E26991422CD110
:1019140003F03F02216A8A4229D1616A47F6C07204
:101924001A40B2EB811F24D103F44031A26A520859
:10193400013AB1EB024F1ED103F07062E16AB2EBDF
:10194400016F1AD103F0E043226BB3EB027F16D18F
:10195400002006E001207047012002E0012000E0A1
:10196400002002B070BD0120FBE70120F9E701204F
:10197400F7E70120F5E70120F3E70120F1E7012073
:10198400EFE700BF0070004000380240000047420B
:1019940030B4036A026A22F0010202624268846976
:1019A40024F0730C0C6844EA0C0423F0020C8B68DA
:1019B40043EA0C03114DA84203D005F58065A84203
:1019C40005D123F00803CD682B4323F004030B4D0A
:1019D400A84203D005F58065A84207D122F44072DD
:1019E4004D6945EA020C8A6942EA0C02426084614C
:1019F4004A684263036230BC704700BF0000014084
:101A040030B4036A026A22F4807202624268C469D2
:101A140024F0730C0C6844EA0C0523F400738C68FE
:101A240043EA0423114CA04203D004F58064A0428D
:101A340006D123F40063CC6843EA042323F48063CF
:101A44000A4CA04203D004F58064A04207D122F4DA
:101A540040524C6942EA04128C6942EA0412426020
:101A6400C5614A68C263036230BC7047000001402C
:101A740030B4036A026A22F4805202624468C26982
:101A840022F4E6420D6842EA052223F400538D68ED
:101A940043EA0533094DA84203D005F58065A84201
:101AA40004D124F480444D6944EA85144460C2613D
:101AB4004A680264036230BC704700BF0000014002
:101AC40010B4036A046A24F001040462846924F0F3
:101AD400F00C4CEA021223F00A030B438261036206
:101AE4005DF8044B704710B4036A046A24F01004D0
:101AF4000462846924F4704C4CEA023223F0A0039B
:101B040043EA0113826103625DF8044B7047836802
:101B140023F070030B4343F007038360704770475F
:101B2400704700000368324A904212D0B0F1804FEF
:101B34000FD0A2F57C4290420BD002F58062904215
:101B440007D002F58062904203D002F578429042B9
:101B540003D123F070034A681343254A90422AD0E4
:101B6400B0F1804F27D0A2F57C42904223D002F5F9
:101B7400806290421FD002F5806290421BD002F531
:101B84007842904217D002F57052904213D002F579
:101B9400806290420FD002F5806290420BD0A2F591
:101BA4009832904207D002F58062904203D002F549
:101BB4008062904203D123F44073CA68134323F034
:101BC40080034A6913438A68C2620A688262084AC7
:101BD400904203D002F58062904201D10A69026307
:101BE400026842F00402026001224261036070470D
:101BF4000000014040B310B5044690F83D30F3B105
:101C0400022384F83D30214651F8040BFFF78AFF84
:101C1400012384F8463084F83E3084F83F3084F859
:101C2400403084F8413084F8423084F8433084F8FA
:101C3400443084F8453084F83D30002010BD80F8ED
:101C44003C30FFF7C7FADBE70120704740B310B51B
:101C5400044690F83D30F3B1022384F83D30214628
:101C640051F8040BFFF75EFF012384F8463084F833
:101C74003E3084F83F3084F8403084F8413084F8B2
:101C8400423084F8433084F8443084F8453084F892
:101C94003D30002010BD80F83C30FFF740FFDBE70B
:101CA4000120704740B310B5044690F83D30F3B1BD
:101CB400022384F83D30214651F8040BFFF732FF2C
:101CC400012384F8463084F83E3084F83F3084F8A9
:101CD400403084F8413084F8423084F8433084F84A
:101CE400443084F8453084F83D30002010BD80F83D
:101CF4003C30FFF715FFDBE70120704730B4036A7F
:101D0400026A22F0100202624468826922F4E64206
:101D14000D6842EA052223F020038D6843EA051387
:101D2400114DA84203D005F58065A84206D123F0E1
:101D34008003CD6843EA051323F040030A4DA8420B
:101D440003D005F58065A84207D124F440644D69A9
:101D540044EA85048D6944EA8504446082614A68E2
:101D64008263036230BC70470000014090F83C304D
:101D7400012B28D010B50446012380F83C300C2AEE
:101D84001CD8DFE802F0071B1B1B0C1B1B1B111BC1
:101D94001B1B16000068FFF7FBFD00200FE0006826
:101DA400FFF7ACFF00200AE00068FFF729FE0020DF
:101DB40005E00068FFF75CFE002000E0012000233E
:101DC40084F83C3010BD0220704738B590F83C30A0
:101DD400012B66D004460D46012380F83C300C2AC2
:101DE4005AD8DFE802F0075959591B595959305943
:101DF400595944000068FFF7CBFD2268936943F00A
:101E0400080393612268936923F0040393612268B1
:101E1400936929690B43936100203EE00068FFF752
:101E24006DFF2268936943F40063936122689369A8
:101E340023F48063936122689369296943EA012347
:101E44009361002029E00068FFF7DAFD2268D36976
:101E540043F00803D3612268D36923F00403D361F8
:101E64002268D36929690B43D361002015E0006817
:101E7400FFF7FEFD2268D36943F40063D36122684F
:101E8400D36923F48063D3612268D369296943EA5F
:101E94000123D361002000E00120002384F83C30BA
:101EA40038BD0220FCE710B4846824F47F4C42EA75
:101EB40003220A4342EA0C0282605DF8044B704735
:101EC40090F83C30012B78D010B50446012380F8FB
:101ED4003C30022380F83D300268936823F47F434A
:101EE40023F0770393600B68602B4CD023D8402BEE
:101EF40054D011D8202B03D00AD80BB1102B05D104
:101F040019462068FFF703FE002028E0012026E0A0
:101F1400302BF5D0012022E0502B0AD1CA68496841
:101F24000068FFF7CDFD50212068FFF7F0FD002089
:101F340015E0012013E0B3F5805F3AD0B3F5005FFC
:101F440014D0702B37D1CB684A6889680068FFF7D2
:101F5400AAFF2268936843F077039360002001236B
:101F640084F83D30002384F83C3010BDCB684A68C7
:101F740089680068FFF797FF2268936843F48043F9
:101F840093600020EBE7CA6849680068FFF7ABFD7F
:101F940060212068FFF7BBFD0020E0E7CA684968BC
:101FA4000068FFF78DFD40212068FFF7B0FD002099
:101FB400D5E70020D3E70120D1E70220704701F0E4
:101FC4001F014FF0010C0CFA01FC036A23EA0C0315
:101FD4000362036A8A4013430362704710B50446E0
:101FE4000846002941D194F83E30013B18BF012333
:101FF400002B6BD100284ED1022384F83E300122FD
:1020040001462068FFF7DBFF2368324A934203D07E
:1020140002F58062934203D15A6C42F400425A643E
:1020240023682C4A934246D0B3F1804F43D0A2F5A3
:102034007C4293423FD002F5806293423BD002F54A
:102044008062934237D002F57842934233D002F54E
:10205400705293422FD0A2F5943293422BD01A6837
:1020640042F001021A6000202FE0042907D0082959
:102074000BD094F84130013B18BF0123B8E794F822
:102084003F30013B18BF0123B2E794F84030013BD5
:1020940018BF0123ACE7042805D0082807D0022381
:1020A40084F84130ABE7022384F83F30A7E70223EA
:1020B40084F84030A3E79A6802F00702062A07D0A2
:1020C4001A6842F001021A60002010BD0120FCE7EA
:1020D4000020FAE70000014010B504460846002934
:1020E40041D194F83E30013B18BF0123002B6BD142
:1020F40000284ED1022384F83E3001220146206894
:10210400FFF75DFF2368324A934203D002F58062F1
:10211400934203D15A6C42F400425A6423682C4A15
:10212400934246D0B3F1804F43D0A2F57C42934210
:102134003FD002F5806293423BD002F58062934225
:1021440037D002F57842934233D002F5705293426D
:102154002FD0A2F5943293422BD01A6842F0010298
:102164001A6000202FE0042907D008290BD094F826
:102174004130013B18BF0123B8E794F83F30013BDD
:1021840018BF0123B2E794F84030013B18BF012384
:10219400ACE7042805D0082807D0022384F841308E
:1021A400ABE7022384F83F30A7E7022384F84030EA
:1021B400A3E79A6802F00702062A07D01A6842F0D9
:1021C40001021A60002010BD0120FCE70020FAE79C
:1021D4000000014090F83C20012A3DD010B4034691
:1021E400012280F83C20022280F83D2002685068D9
:1021F400946820F0700C086840EA0C0050601A687B
:10220400164882421AD0B2F1804F17D0A0F57C4014
:10221400824213D000F5806082420FD000F58060C6
:1022240082420BD000F57840824207D000F570500E
:10223400824203D0A0F59430824204D124F0800479
:10224400496821439160012283F83D20002083F8EE
:102254003C005DF8044B70470220704700000140C9
:10226400FEE7FEE7FEE7FEE7FEE7704770477047CC
:1022740008B5FEF7E9FB08BD08B50248FEF79AFD6C
:1022840008BD00BF78360020034AD2F8883043F4F2
:102294007003C2F88830704700ED00E0DFF834D0F6
:1022A400FFF7F2FF0C480D490D4A002302E0D45811
:1022B400C4500433C4188C42F9D30A4A0A4C00238C
:1022C40001E013600432A242FBD300F019F8FEF7D8
:1022D40039FB704700000220000000205436002023
:1022E400D4260008543600206C370020FEE7024450
:1022F4000346934200D1704703F8011BF9E700003D
:1023040070B50D4B0D4D5B1B9C100026A64209D1E8
:1023140000F096F90A4D0B4B5B1B9C100026A6425D
:1023240005D170BD55F8043B98470136EEE755F8E2
:10233400043B98470136F2E7CC260008CC26000877
:10234400CC260008D02600082DE9F047089D0F464A
:1023540004468C46002B48D18A42164661D9B2FA0B
:1023640082F34BB1C3F1200201FA03FC20FA02F21A
:102374009E4042EA0C0C9C404FEA164EB7B2BCFB9E
:10238400FEF1220C0EFB11CC42EA0C4201FB07F0D9
:10239400904209D9B21801F1FF3C80F0EE809042DE
:1023A40040F2EB8002393244121AA4B2B2FBFEF0BE
:1023B4000EFB102244EA024400FB07F7A74209D9A6
:1023C400341900F1FF3280F0DA80A74240F2D7805E
:1023D4003444023840EA0140E41B00211DB1DC40D2
:1023E4000023C5E90043BDE8F0878B4206D90DB14F
:1023F400C5E9000100210846BDE8F087B3FA83F17E
:10240400002948D1BB4202D3824200F20781841AD8
:1024140067EB030201209446002DE4D0C5E9004C8B
:10242400E1E7002A00F09280B2FA82F3002B40F038
:10243400A8808A1A4FEA164E1FFA86FC0121200C46
:10244400B2FBFEF70EFB172240EA02420CFB07F038
:10245400904207D9B21807F1FF3802D2904200F235
:10246400E2804746121AA4B2B2FBFEF00EFB102221
:1024740044EA02440CFB00FCA44507D9341900F1DA
:10248400FF3202D2A44500F2CB801046A4EB0C0428
:1024940040EA0740A2E7C1F120068B4022FA06FC7D
:1024A4004CEA030C07FA01F420FA06F3F7404FEA6A
:1024B4001C49234300FA01F81FFA8CFEB7FBF9F01C
:1024C4001C0C09FB107744EA074400FB0EF7A742F3
:1024D40002FA01F20AD91CEB040400F1FF3A80F07D
:1024E4009B80A74240F2988002386444E41B9FB268
:1024F400B4FBF9F309FB134447EA044403FB0EFE5F
:10250400A64509D91CEB040403F1FF3780F082804F
:10251400A6457FD9023B644443EA0040A4EB0E0481
:10252400A0FB02E7BC427346B94663D360D05DB1F9
:10253400B8EB030264EB090404FA06F622FA01F389
:102544001E43CC40C5E9006400214CE762084808FA
:1025540042EAC1710B0C43EA00438AB242EA0342E5
:10256400B3FBF6F1E407B4463746B6461F23B0FB87
:10257400F6F0D21B41EA004161E7614614E71046D8
:1025840028E7C3F1200120FA01F29E4027FA01F165
:102594009F403A434FEA164E1FFA86FCB1FBFEF702
:1025A4000EFB1710110C41EA004107FB0CF888459B
:1025B40004FA03F43AD9711807F1FF3001D28845BF
:1025C4001FD8A1EB0801B1FBFEF808FB0CF70EFBCA
:1025D400181192B242EA0142BA422FD2B21808F15B
:1025E400FF31C6D2BA42C4D2A8F102013244C0E7D4
:1025F400F0459CD2BEEB020367EB0C070138B946E9
:1026040095E7A6EB08084144B81EB1FBFEF808FBA9
:102614000CF7DCE73B467FE7504667E70846FBE6F6
:102624003444023832E7023F32441BE7A1EB08018D
:102634003846B1FBFEF808FB0CF7C8E7414698E7BB
:10264400F8B500BFF8BC08BC9E467047F8B500BF9B
:08265400F8BC08BC9E4670476B
:10265C0057617665666F726D3A000000576176655A
:10266C00666F726D3A20000053696E6500000000C1
:10267C00536177746F6F7468000000005472696165
:10268C006E676C65000000005069616E6F000000A1
:10269C004472756D0000000047756974617200002A
:1026AC0000061016000610160000000000000000C6
:0826BC000102030406070809EE
:0826C40088FCFF7F010000000B
:0426CC001D020008E3
:0426D000F901000804
:1026D400742600087C260008882600089426000832
:1026E4009C260008A4260008483400204832002014
:1026F40048300020401000204420002038000020F2
:102704003C0400407D000000B2070000B207000056
:10271400B2070000CE070000B00800003F08000028
:102724003608000090080000390700002706000062
:10273400E0050000BE0700001809000017090000AA
:102744004A08000091070000640700001608000012
:10275400590800000C0800000607000031060000BC
:1027640080060000BE0700009B080000650800000A
:10277400B20700006A070000D40700008A080000BE
:1027840088080000F3070000E1060000610600006D
:10279400E7060000DB07000051080000DD07000029
:1027A40083070000440800003B0800001E080000E6
:1027B4001D090000F10700006D0700000307000079
:1027C4009C060000910800004A0800005008000020
:1027D4006807000010070000DC0700008E090000F5
:1027E4007905000097050000A20C0000D702000044
:1027F4006D0A0000DB040000420B0000B406000078
:102804004C070000E4080000D0070000C5090000E0
:10281400990600004007000067070000E407000075
:10282400BE080000500700008E0700007C0700006F
:10283400A9070000C507000099070000D60700009B
:102844005F070000ED070000A8070000E90700008B
:102854009C0700008F0700009B070000A7070000EB
:10286400CA070000C0070000CE070000AC07000044
:10287400B4070000A5070000DC0700009207000071
:10288400C507000094070000AE070000C30700005E
:10289400A0070000E807000081070000A20600006E
:1028A400A20800009A0700002A070000740800002C
:1028B4005B070000210800001C0700004607000019
:1028C400F4070000800700003708000058070000E4
:1028D400920700001B0800008C070000CA070000D4
:1028E400A5070000A5070000CB0700009A07000019
:1028F400CC070000AD070000AC070000BA070000D9
:10290400A3070000BB070000AD070000B9070000E3
:10291400AC070000D20A00004F090000790700004C
:10292400C6060000F405000066050000B2060000BB
:10293400F30900003E0900008D070000160700009F
:10294400DD0600001E0600006F070000A909000054
:102954009B08000047070000C4060000F5060000BD
:10296400BF0600001D080000C90900009D08000002
:1029740068070000AD0600007D060000CA060000DE
:102984004F080000550900003A0800005E070000E7
:102994000F070000AB06000015070000EB0800005D
:1029A4009E080000C707000096070000E806000024
:1029B40031060000EA0700000B090000440800008B
:1029C4003D0800005507000048060000940600007A
:1029D400EF070000A4090000D2080000CA030000A9
:1029E4005E0900001808000062060000C20700002B
:1029F400180600008B0700002008000050080000A3
:102A0400F40500004B060000B0080000D6080000E2
:102A1400890700001C070000780700004C0800002C
:102A2400A40700003D080000C30700008107000060
:102A34009007000091070000DA070000DA070000A1
:102A4400EF07000082070000A3070000AB070000A7
:102A54009A070000A7070000B3070000BD070000A5
:102A6400AD070000B5070000B7070000AA07000083
:102A7400C1070000C1070000D5070000AD07000032
:102A8400AD070000A9070000A2070000B707000077
:102A9400C2070000B00700005E07000085070000C1
:102AA4005F08000006090000340700000107000069
:102AB4000E080000450700007C070000B507000071
:102AC400EC070000A10700006B0700006D08000080
:102AD4002D070000E3070000D8070000AE07000040
:102AE4009D070000C8070000E9070000A2070000D6
:102AF400A5070000B9070000BA070000A9070000F5
:102B0400A7070000B1070000B4070000AD070000EC
:102B1400B0070000AF070000EC080000AD0700009C
:102B2400C006000095080000A30700000508000087
:102B34004A080000200700003F0800005F0700006B
:102B44001F080000010800000807000081080000B9
:102B54005307000006080000CF07000038070000F4
:102B64003208000046070000340800009F070000F8
:102B74004B070000240800002B0700003508000064
:102B84009907000094070000F80700002F070000D1
:102B94002B0800009F0700007F08000007080000C2
:102BA4007A0700002D0800001C0800004A080000F5
:102BB400780700009D070000C7070000F107000028
:102BC4000E080000E0070000ED070000AA0700005F
:102BD400440700006B0800000D090000370F0000D7
:102BE4001906000013060000740700000208000024
:102BF400FF080000BB080000A00400001707000045
:102C0400EC070000DB080000380700007306000032
:102C14005207000032070000F5070000AA07000071
:102C2400EE070000D0070000ED070000BC0700001D
:102C3400B20700007F070000F1070000AF070000A3
:102C4400B8070000B807000092070000C2070000A0
:102C54009B070000B2070000D107000095070000A1
:102C6400AF070000A5070000B8070000C507000073
:102C7400A3070000C2070000B7070000B207000066
:102C8400BB0700009F070000C8070000A107000061
:102C9400D0070000AB070000B8070000DA07000007
:102CA4003D0700007A07000093070000600700005A
:102CB4007F0700007B070000CA07000039080000F6
:102CC400960700002D07000004070000D10700004C
:102CD4000C080000EB070000170800007307000051
:102CE4000507000043070000F1070000F10700009A
:102CF400C8070000BC070000A2070000A9070000E5
:102D0400BA070000BA070000BF070000B0070000C0
:102D1400A00700009A070000910700004007000088
:102D24006B080000CC070000DF0700007C070000F0
:102D3400D7060000B00800006C070000D7070000A9
:102D44001B080000F80600005A0800006407000091
:102D54000A080000F30700000D0700004308000004
:102D640068070000FB070000B007000042070000EE
:102D7400110800005607000031080000A0070000F9
:102D84007E070000F30700003A0700003608000041
:102D940080070000CB060000A506000053070000D2
:102DA4001C0800006B0600004E080000C00800006C
:102DB400B50600000C080000E2060000130800003D
:102DC400AD070000F9060000B40800005E0800002A
:102DD40086070000A0070000AF070000900900006C
:102DE4000A07000074070000B80800005E0600002F
:102DF400E5050000A607000086080000050600009F
:102E040034080000E4060000F00800007107000028
:102E1400EB070000060A0000AB060000C60600002F
:102E240070070000870600008A060000EB08000017
:102E34004D090000390700008D06000073060000EC
:102E44009D06000077070000D3090000AD090000CB
:102E5400E507000034070000830600004206000076
:102E64006907000045090000C20800005807000077
:102E74005C070000F5060000F206000048080000A8
:102E84004A09000067080000C1060000C6060000E9
:102E9400AE060000F0060000200800007B090000D8
:102EA400E3070000AC0600009A08000029070000B0
:102EB4005806000000090000A909000020070000CE
:102EC4005E06000085070000AC060000E006000076
:102ED400FC090000FF0800007A0800000008000058
:102EE4006F0800005F0500005D0700003F08000058
:102EF400230700000C08000060080000FD06000025
:102F040049070000B60700004A0800006C070000EB
:102F14001A090000AB0600009B060000BF08000071
:102F2400750900000D090000F507000049070000BD
:102F34006707000016080000F4070000640700009B
:102F440049060000E2050000D1060000390800002F
:102F5400F7080000660800009D0700005307000002
:102F640012080000950800003E08000089070000D0
:102F740060060000530600005007000049080000E6
:102F84003B080000B90700006B070000820700003F
:102F940067080000D308000051080000570700002C
:102FA400CF060000DD0600005F070000B408000043
:102FB4004808000068070000C0070000AE070000D2
:102FC4001D090000C5080000D60700000E07000018
:102FD400270600009B0700002D090000670A000077
:102FE400C6070000B40800005107000022060000D4
:102FF40047060000FA0800009B0500008308000053
:10300400240800004F080000F2060000FC0600003F
:1030140021070000D7060000690700002D08000002
:10302400B8070000B00700008E070000B0070000DA
:10303400E2070000D1070000A00700008C07000091
:10304400BB070000BB070000B0070000BE0700007C
:10305400B40700009507000090070000CE070000A9
:10306400E7070000C9070000A6070000A407000046
:1030740088070000B7070000BC070000C507000070
:10308400AE0700009F070000C1070000AD07000065
:10309400E60700006C070000EA080000780600005C
:1030A40055070000B1070000BC060000C708000077
:1030B4007B07000079070000A0070000E30600007A
:1030C40051080000480700002A080000C207000059
:1030D400FA060000F107000095070000B60700009B
:1030E400C10700009C070000C60700009E070000FF
:1030F400B2070000B90700009F070000C4070000E2
:10310400AB070000B7070000AE070000AF070000E0
:10311400FC06000097060000C0060000C20800007C
:10312400540900008B080000FF0700007E07000020
:1031340083060000AB060000D40800004709000025
:103144003C080000FB060000E1060000C606000083
:10315400FE0600001D0900005C0900001D080000B7
:103164000807000097060000AD06000038070000BD
:10317400D0080000D8080000B90700003D0700008F
:1031840002070000F1060000DC070000FE08000052
:103194007D080000A1070000F1060000E50500001D
:1031A4004F070000F20700005E08000064080000FA
:1031B4008807000061060000BE0600001107000039
:1031C4000D0800009A080000E208000061070000F2
:1031D400E30600006F08000080070000CB0B00002E
:1031E400E504000007080000CB0500009509000075
:1031F400CA06000045080000130700001E0900006D
:103204009109000027060000A90800002A05000013
:103214009C08000036080000CD07000004080000E8
:103224006607000080070000A9070000FE070000F1
:10323400D3070000AA070000850700006A07000002
:10324400A4070000C9070000CF070000930700008F
:10325400BE070000A5070000B0070000AF0700008C
:10326400A9070000A1070000C2070000A207000090
:10327400B30700008D070000A2070000C307000089
:10328400B7070000B4070000A4070000A807000067
:10329400A1070000F40700003D0800004D070000EE
:1032A4004B0600009608000025070000CF07000029
:1032B400DF060000F307000045070000F0070000E8
:1032C4009C0800009207000053070000000800005B
:1032D40061070000A20700002F080000D8070000C3
:1032E4009F07000036070000F3070000A007000056
:1032F400A8070000AF070000BA070000B7070000E6
:10330400A7070000B5070000B4070000A7070000E6
:10331400B0070000D206000060060000920800001A
:1033240009080000FF070000F906000085060000F8
:10333400A8080000530700002B0800000208000042
:10334400B50600003A0800003B07000055080000DD
:10335400D307000003070000140800002D07000035
:103364004808000085070000650700000208000007
:10337400F30600005008000086070000A9070000BB
:10338400F00700001A0700002E0800007307000071
:1033940005080000F40700003D070000BD08000018
:1033A4009C06000038080000F5060000A60700008F
:1033B40079080000EF060000410800004F070000F4
:1033C400B70700008B0700000C0700008A08000004
:1033D40033070000A20700008506000082060000F3
:1033E400760D000005050000760600007508000053
:1033F400F80400007C0A0000B6070000CE070000B5
:103404006F070000090600009008000099090000F9
:10341400A70700006C0700008A07000002080000EC
:1034240072070000D1070000A60700009A070000F9
:10343400CC0700008F070000B5070000A2070000BA
:1034440096070000D2070000B3070000AB07000096
:10345400B2070000AB070000B8070000C90700006E
:10346400C3070000B6070000B4070000BE07000051
:103474009B070000C2070000B3070000BA07000062
:10348400B70700009A070000C5070000B007000056
:10349400B9070000BF07000080070000B007000064
:1034A400E1070000C6070000F50700004608000019
:1034B400AB070000350700008C070000FD07000083
:1034C400C407000050080000020800006F07000055
:1034D4001D0700006F07000021080000F10700002D
:1034E40006080000E2070000720700007F070000E2
:1034F400AC070000C4070000BF070000AB070000D2
:10350400A5070000A9070000B4070000C0070000D9
:10351400C9070000FA080000ED0800004706000093
:10352400D8070000FC070000CE060000BC0800001D
:103534006B07000013080000C3070000AF0600007B
:10354400AF0800009207000050080000DD070000EB
:10355400FA0600001A080000500700004A0800009C
:10356400A507000067070000D4070000210700003A
:10357400500800006D070000C8070000FD070000A8
:10358400190700003C0800007C070000FC0700004D
:10359400C6080000FE0600000B0700003F070000FD
:1035A4001C07000078080000400600005C080000CA
:1035B400B1080000F007000079070000BC07000014
:1035C400610700009B07000070070000F807000077
:1035D40064080000CE060000030700006F0A000024
:1035E400C106000015050000FA080000A00900004B
:1035F400AE08000065070000DC0800004807000072
:10360400FB050000D3080000AA0700006A070000B9
:10361400C50600004707000008090000110A000061
:103624007D0900008807000039070000010600003A
:10363400F405000013080000A709000016090000A3
:103644009907000085070000800600006806000056
:10365400140800003E090000ED070000F006000019
:10366400020700008C0600002A070000DA080000A8
:10367400BE0900004B080000A0060000CB060000B5
:103684007306000016070000AE0800001A090000C7
:103694001208000005070000CE060000D506000051
:1036A400720700001D0800006B09000012080000EA
:1036B4003406000004070000830700000A07000026
:1036C400AD080000800900004407000069060000FE
:1036D400B7070000AE070000F90500000607000068
:1036E40064080000D20600005906000088080000A3
:1036F400D807000005070000980700008F070000A6
:10370400CB07000001070000FC070000B20700001F
:103714006D0700006D07000034050000C9060000B5
:10372400D303000036090000410A0000120600001D
:10373400840800001B08000096060000CA07000069
:103744004907000014070000390700006406000060
:1037540091070000030800004707000099070000D4
:10376400B30700005F0700006A0700005807000065
:103774006B0700007C0700004C0700007D07000079
:103784008E070000590700006E0700007E07000046
:103794004307000069070000AF070000330700007B
:1037A400620700001807000058070000C707000060
:1037B400510700007807000071070000510700005E
:1037C4007A0700007407000077070000680700000C
:1037D4005007000050070000A90700007E06000003
:1037E4002908000009080000020700002007000063
:1037F400450700002007000013080000FF06000032
:103804009F070000F306000093070000D90700009B
:10381400E7060000AD0700008C0700009E070000CB
:103824001E0700005E060000E8060000C70700004F
:10383400A30800005707000034070000AC0700008D
:10384400F7060000A50700008E070000200700000F
:103854004507000022070000540700006807000025
:103864005C0800005B060000830800007606000088
:10387400EA0700004D0700003B070000DA0A0000D9
:10388400FC0500001F07000020070000610600007F
:103894000008000036080000940800000405000039
:1038A4005406000022080000E7070000200800007A
:1038B40004070000DB060000F8060000A50700006E
:1038C400A30700000B0700008E070000A2070000FA
:1038D4004A07000075070000CD08000066080000D4
:1038E4009B05000060080000C506000045080000B4
:1038F400F8060000DD0700004207000095070000FD
:10390400870600001007000021080000840700005B
:10391400E4070000A406000025070000D907000002
:10392400BF0700009E0700003E07000020070000BC
:10393400B307000064070000720700008707000057
:103944005707000085070000940700006507000082
:103954005C07000064070000E90600004807000057
:10396400300800004A0700009D070000FA06000026
:10397400950700005D070000790700008807000034
:10398400500700006F0700005D0700008507000076
:103994005507000069070000780700006007000071
:1039A400700700005D0700007B0700006807000047
:1039B4005A070000710700007A0700005E07000044
:1039C400580700006E0700007D0700007C07000018
:1039D4006F0700004B07000057080000FA060000BC
:1039E400B90700007807000005070000EA07000097
:1039F400EC060000FC070000720700005A070000F4
:103A04006E07000084070000590700006F070000DC
:103A1400640700005E07000083070000AD06000095
:103A240037060000B2060000460A00003A0600000D
:103A3400F80700007E060000670700000B0800007E
:103A4400720700006D070000420700008B070000AA
:103A54007307000072070000B00300006308000051
:103A64000907000033070000BC0800000806000036
:103A7400D60700001907000036080000C30600003E
:103A8400A807000055070000810700007407000024
:103A94002507000092070000C60A0000790700000D
:103AA4001E080000B5060000CE060000BB0600009C
:103AB400340700006409000037080000D90600003C
:103AC400E4060000AA07000088070000C7060000FB
:103AD4004E070000900300007F0A0000A0070000CA
:103AE4007508000071060000D4070000DE0600001F
:103AF4002B07000076070000E40700008C07000095
:103B04004C0700006E0700006A0700001F07000052
:103B140038070000A2040000CE030000EB0C0000F4
:103B2400F0070000060600003209000079060000D4
:103B34002B070000D9070000D9060000E9070000A0
:103B4400F90600007B0600003F0800009F07000004
:103B54008A07000001080000C90600007107000080
:103B64008C07000069070000930700005407000059
:103B740045070000A7070000520700008507000062
:103B84008907000062070000540700009F07000037
:103B940045070000910700004F0700007C06000065
:103BA400DF070000D007000034070000A107000071
:103BB400810700005407000070070000750700002B
:103BC400740700006007000033070000840700004A
:103BD4008E070000FE070000250600009F0300007A
:103BE40000090000CF08000051080000D0060000C2
:103BF40066070000040800003307000044070000C3
:103C0400F5070000EE06000014070000ED060000B2
:103C14000308000074060000B6060000C506000094
:103C24002A050000D90800006809000052060000B7
:103C34009F07000006080000DA060000A407000041
:103C4400650700001207000066070000EC0600008C
:103C5400890700004309000024060000D007000083
:103C640023070000AF0600006A080000F706000002
:103C740002080000F006000096070000080A000091
:103C8400E205000081050000A8070000B10700005C
:103C94004C0700007D0600005F070000F2060000EC
:103CA400A307000096070000D406000027070000C1
:103CB4009E07000067080000170700002D0700009A
:103CC4001907000047070000DA0700008907000011
:103CD400B30700001E0900000D06000032090000B1
:103CE400A3050000A508000074070000D506000025
:103CF40056070000C407000086070000E007000024
:103D0400A20600000E07000061080000E40600009F
:103D1400EF070000F40600009A070000CF07000038
:103D2400170700006C07000000070000A907000047
:103D34009707000088070000180700006B070000C1
:103D44006F070000520700008307000061070000AE
:103D5400620700008E07000068070000B406000038
:103D640054080000E1060000B1070000130700003A
:103D74008B0700006307000063070000740700005E
:103D84005B0700007A0700005D070000630700007E
:103D94006507000097070000630700006A0700003A
:103DA4005F070000700700006E070000680700004E
:103DB400710700005C07000062070000580700005C
:103DC4007D07000062070000710700006B07000018
:103DD4007B070000FE0900009D050000850A000025
:103DE4003B030000400900009F0700008E0800000C
:103DF40099060000880600001C070000C6080000A1
:103E0400620700003D070000D606000037070000E7
:103E1400100800007C070000920A0000EB05000077
:103E24008305000018080000580700007F08000000
:103E3400EE06000005070000FC070000180700005C
:103E4400460700003A0700005C070000D1070000A5
:103E540046070000F00800007C060000ED070000A3
:103E640076070000ED060000F70700007206000068
:103E74009708000049070000940700001A07000093
:103E8400700700007F070000870700007F0700001D
:103E940029070000EC0A000048030000CD060000DA
:103EA400B5060000DE090000B2080000A405000009
:103EB4003D0700009C060000E0070000E107000049
:103EC40028070000D60700008B06000079070000D1
:103ED400B90700002806000020090000B105000011
:103EE4001E0800005E07000066070000BA07000015
:103EF400D1060000620700009F070000AD07000024
:103F0400480700005F0700009E07000052070000FA
:103F14005F0700006B0D00005106000062090000FD
:103F24005F080000720500007F080000B006000072
:103F34000B07000093070000CF05000034070000C2
:103F4400BE0800008A070000BA07000092070000BC
:103F54006607000013080000DF0600007B0700006E
:103F64006307000052070000DC060000C9070000D8
:103F74007907000061070000890700007C07000042
:103F840093070000440700006A070000660700006A
:103F940084070000F80600004408000074070000CD
:103FA40036070000B20700002C0700008E0700004F
:103FB4005E070000660700007A0700002A07000079
:103FC4004B070000AE0700006E0700004607000024
:103FD40099070000C0060000280900002B07000014
:103FE4005207000073060000A4070000BB0700008E
:103FF4000308000001070000300700005807000014
:1040040097070000F3070000FD06000056070000B4
:10401400560700005604000017050000C60A0000F9
:104024001A08000029070000C50800006307000003
:104034001B070000DF07000069060000610700009D
:10404400450700002006000009080000EB070000F7
:104054005907000077080000EF060000CF070000B2
:10406400740700005C0700004007000021070000FF
:10407400BD0700009E07000002070000D5080000ED
:10408400150B0000D404000011070000FC0500001B
:1040940035070000330A00002909000093080000D6
:1040A4003E05000025060000CA070000380800008D
:1040B400680800000E070000A1070000FE060000CB
:1040C4005D07000090070000150700008F0700003F
:1040D4009F070000CC080000130700000E07000033
:1040E400610800001E0600003909000021050000D7
:1040F400B6080000710700000C0800006407000007
:10410400AE06000006070000440800005B0700003C
:10411400B9070000F30600000D0700008507000042
:104124008907000098070000450700002A070000DF
:104134005B070000980700004C0700009007000090
:104144005E070000780700005C0700006F070000AE
:104154006C0700001D070000680700005D070000F1
:10416400D20700004C07000042070000710700005E
:104174003D0700008A07000077070000740700006D
:1041840058070000810700005D0700006B0700006E
:104194007307000098070000630700006107000030
:1041A400760700005E0700005A0700006F07000052
:1041B4006F0700006A070000960700004E07000022
:1041C400560700006C070000770700006507000031
:1041D4007A070000600800005D0600003E08000049
:1041E400D0060000D20700003D0700006007000071
:1041F4009E0700005A0700007A07000062070000CB
:104204006E0700005E0700006D0700006C070000E9
:104214005E0700007F0A000086070000F407000024
:10422400440500002D070000AE080000CA07000086
:1042340084060000E40700000F07000023080000C4
:104244001A0700003007000085070000D6070000A9
:10425400480700006609000048070000C006000087
:104264007A07000019070000B20700000F070000DA
:1042740097080000F70600004308000088060000C5
:1042840005070000300800006B070000C9070000A4
:10429400D4060000A70300003B07000075070000D8
:1042A400FC080000E4080000C1050000FD06000051
:1042B400C407000002080000EB060000EF05000040
:1042C40017080000E8070000E907000004070000E1
:1042D40035070000C30700001A070000D5070000D7
:1042E4004C040000AC090000D406000016080000CD
:1042F400F60600006D070000F20700002D0600001E
:1043040054070000BB0700008B0700009C07000057
:10431400840700001D0A00002A050000B5070000FC
:10432400C0080000A8050000F70800004C070000C2
:1043340028050000D70700005E0800005D070000A4
:1043440059070000C0070000FC06000058070000E1
:104354007D070000B60700004B070000240700009B
:10436400520700000A070000CA0700004F070000B8
:104374008307000080070000730700007207000035
:104384005607000047070000790700008607000071
:104394005907000014070000BA0700004B0700008B
:1043A4003B070000DC070000670700006F07000000
:1043B4004807000038070000710700008907000063
:1043C400710700007B070000790700006507000003
:1043D40062070000E408000070090000870700007D
:1043E4004707000071080000890600002F0800003C
:1043F4001F070000520600000307000061070000C9
:104404000C080000B4070000850700008A070000BC
:104414004B070000020C00001907000018080000F8
:10442400E0080000DC060000080800002407000083
:10443400D3060000B30700001C060000FC060000C1
:1044440083080000B807000062070000BA070000F4
:1044540031060000CC080000A90600004008000056
:10446400EE060000C2070000DA060000980700000C
:10447400E807000056070000C5070000C508000053
:10448400910700005D080000F6050000B407000075
:10449400B5070000B905000004070000E5070000A7
:1044A400AE08000031080000C906000067060000DD
:1044B400B8060000DA070000E90700006C070000F6
:1044C400C1060000330700008407000077070000DE
:1044D40040070000D1060000C3070000A605000045
:1044E4009E090000DF050000860900003F0500006A
:1044F4009007000007080000B10700009F070000B4
:104504009A06000050070000CF070000750700005E
:1045140015070000320700003A0700000D080000EC
:104524004107000024070000720700006D07000027
:1045340088070000740700008307000032070000AA
:104544006C070000620700008E0700007607000079
:10455400A2070000430700001607000075070000CB
:1045640079070000810700003A070000B507000042
:10457400470700006E0700007E0700006D0700007B
:104584005C0700008C0700004F0700008107000053
:104594004507000085070000680700005807000071
:1045A4006507000080070000700700006A0700002C
:1045B4007607000062070000740700007907000016
:1045C4004D07000069070000730700007107000031
:1045D400F9050000620B0000A60500008908000030
:1045E400710500004B070000A0090000FC05000055
:1045F400BD080000FC050000570700001F0800006C
:1046040086070000830700000A070000580700001F
:104614004A0A00008A050000BB0700006809000080
:10462400400600006908000000060000FA060000C9
:10463400B10800006C0700001708000075060000B0
:10464400E206000005080000CD070000E5070000B1
:10465400A8070000460700002E07000027080000F6
:10466400F2060000E8070000C10600008B07000006
:10467400890700008E07000064070000450700005A
:104684006D070000970700005E0700006407000044
:10469400AB070000D4070000B605000020070000A7
:1046A400D0070000A0070000D1080000BA060000EF
:1046B400DA0700005B07000029070000AA070000D2
:1046C4001E070000350800003D0700000007000039
:1046D400EB05000001090000210600000C090000A0
:1046E400D4050000720800008A0600004408000097
:1046F40094060000D7060000DA07000079080000DD
:10470400D2070000A50600007E060000690700002D
:104714006D070000FF07000000080000FA07000012
:104724005D0200002400000085010000FE0F00006F
:1047340003000000660D0000E4030000B008000060
:10474400B30800009F080000780800009F070000DD
:104754006D07000063070000B3080000E8050000CF
:10476400AF0900009A06000018080000ED080000D8
:104774000D070000C508000078070000E6070000E8
:1047840051080000C207000019080000E0070000FB
:1047940037080000E80700000208000028080000AD
:1047A40056070000FF0F000042050000FF0F000045
:1047B400020000000E0D0000DB0500002E080000C2
:1047C4003A080000BD090000370700003E08000059
:1047D400270700004B070000530900009205000062
:1047E40090090000BD060000C0070000F2080000A8
:1047F4002F0700008B080000C2070000B407000068
:1048040044080000D20700000F080000ED07000074
:1048140021080000F6070000F80700001D0800004A
:1048240089050000DA0B00008D030000C6030000B8
:104834006B0A000051080000FF0600009E060000FD
:10484400C7070000AF080000A308000089070000A4
:10485400AF0700002608000056080000BF0700004C
:104864000F080000F507000001080000020800001E
:10487400D9070000150800000A080000F807000026
:10488400EF070000F8070000F9070000FD0700002B
:10489400FE070000FC070000050800003F070000B9
:1048A40000000000FE000000340E000006000000BE
:1048B400AE0D0000F0030000FA07000094080000A9
:1048C400DF08000058070000BE070000B80700001A
:1048D400D3060000560900005306000088080000B3
:1048E400F7070000A6060000600900005107000059
:1048F400EF070000D5080000450700000E0800007F
:104904003B0800006F0700000F080000BB07000011
:1049140041080000B90700000F08000080070000EC
:10492400B6070000EF070000AD0600008007000096
:1049340048080000E8070000BC0700001F0800004A
:10494400B90700003F08000020080000F30700003A
:1049540014080000F5070000F8070000E90700004C
:104964000908000038080000FB07000011080000D7
:10497400FA070000F40700000E080000F707000023
:1049840000080000FD070000F7070000FF07000013
:1049940002080000FC07000005080000E40700000E
:1049A400680A0000F4050000D6060000D0070000E5
:1049B40081080000DE070000FB070000FF0700007D
:1049C400160800003C0800002B080000E507000062
:1049D400F507000001080000F8070000580800006F
:1049E4004A08000008080000230800000608000028
:1049F400F1070000FB07000024080000F307000093
:104A04000408000012080000000800000508000067
:104A1400FD07000001080000B9070000FD0F0000B9
:104A2400EE0F0000A805000096050000D508000060
:104A34009C0A00008D060000A20500005308000037
:104A440047090000D30800005E0700009807000033
:104A5400220800002A080000D2070000F607000020
:104A640010080000EC070000F6070000FE07000035
:104A7400F40700000C080000F8070000FD07000020
:104A8400FB07000013080000EA0700000608000006
:104A9400F007000015080000EB070000A407000061
:104AA40024090000130900003B070000F10700007F
:104AB400C907000098070000F0070000070800007D
:104AC4000C080000F807000009080000FD070000BA
:104AD400FA07000000080000AF070000A00B000068
:104AE40050010000EF070000540B00009404000084
:104AF4000C0C0000FD060000BB0A000016050000B7
:104B04001C0A0000E00400008A09000044080000B8
:104B14003D0700000E0800006A0800008509000037
:104B2400160000009D030000400E0000000000007D
:104B3400280B0000F7010000AF0700007308000015
:104B4400A8070000FF09000009070000180800007A
:104B54001708000014080000D206000073090000C2
:104B6400A206000093080000890800001507000051
:104B7400EA08000040070000320800004C0800006A
:104B8400A60700001C080000CA070000490800002E
:104B9400CC0700000F0800001F080000D008000028
:104BA40051080000480800008B0700002A08000094
:104BB400120800005C080000B8070000F6070000B7
:104BC40012080000E70700000608000022080000A1
:104BD400E60700000E080000040800000A080000B0
:104BE400CF070000FC0700000B080000E9070000E5
:104BF400380800006C080000040800000C080000DD
:104C0400F207000005080000050800000008000085
:104C1400FF07000001080000F0070000FF0F00007C
:104C240052050000F60500005B060000790900004B
:104C340054070000CB070000230800009C09000073
:104C440082080000B0070000BD070000170800003C
:104C540004080000F2070000D00700001E0800004E
:104C640007080000F80700000C080000F80700001F
:104C740005080000F6070000F9070000F707000028
:104C840008080000FC070000FB070000FA0700000A
:104C940002080000EE0700001D0800009A0A000048
:104CA400900600007A0C000000000000020B0000D7
:104CB400000000001E070000D8070000E407000001
:104CC4003A09000033070000450800000807000007
:104CD400E9090000040600009D090000880700009F
:104CE4002D070000DE090000090700002808000065
:104CF400140800003307000091080000BE070000FC
:104D0400EA070000EE07000022080000EF07000099
:104D1400D007000027080000E00700002C0700006F
:104D24009E0600000309000072080000E20800006B
:104D34001B0800001C0800006B080000CF070000DF
:104D4400E9070000FA070000E70700002108000057
:104D5400FB070000100800001A0800000908000002
:104D6400020800001108000003080000FF0700000B
:104D7400F107000013080000F6070000FE0700001A
:104D840000080000F8070000070800000108000000
:104D9400FA07000004080000F807000017000000EC
:104DA4000D080000B9060000B7090000DF07000085
:104DB400B20D0000EF08000003090000B904000070
:104DC400900A0000A7050000910A00008A0700006D
:104DD4004C070000A5090000D906000019090000CD
:104DE4003C0800005007000070080000F7070000AE
:104DF400F107000059080000A4070000090800009A
:104E040034080000EA0700000C080000D507000081
:104E14001C080000F107000080030000900200005D
:104E2400FD040000190D0000E80900004907000016
:104E34001608000019090000060900003D070000DB
:104E440071070000AB070000470800005E0800007F
:104E5400F5070000E20700000C0800002D08000020
:104E6400E8070000D207000008080000FD07000062
:104E7400F9070000E4070000EF0700000D08000038
:104E840006080000E707000008080000EE0700001D
:104E940017080000F9070000EA06000048090000AE
:104EA4001E070000A0070000A50800009F080000DE
:104EB400280800000D080000A7070000CA0700002A
:104EC4000E08000010080000030800000908000094
:104ED400FF070000FB0700002D0400001E06000071
:104EE400D1070000560A000051030000490E0000DB
:104EF400D80700006F0900008E060000CE080000ED
:104F0400C2060000A5090000FB070000FD06000022
:104F1400D20800009C070000BA070000F10F00004F
:104F2400A30B00003209000097080000620900008A
:104F3400960400003A07000090080000680600008C
:104F4400AB090000CD050000DE0800007308000076
:104F5400C907000048080000B00800001707000057
:104F6400C0080000C907000059070000CC08000071
:104F74005C0700006808000022080000A807000081
:104F840032080000BE07000042080000BC07000011
:104F94001F0800000D080000990500001C0800000F
:104FA400E2070000BB0C000039010000340A0000D5
:104FB4003C0200001E0700006808000050070000C3
:104FC400040A0000AF060000590800004A08000067
:104FD400F40700005307000022090000B306000094
:104FE400AD0800004A0800001D070000E9080000A1
:104FF4003A0700004308000041080000A30700002E
:1050040022080000C90700004D080000C007000086
:10501400190800001E08000041010000D40000002F
:10502400C90C000034080000050500003F0800001A
:1050340073080000C4080000E106000084060000B4
:105044006B0700006808000032080000D707000062
:10505400EB070000050800002F080000CC07000043
:10506400CC0700000608000015080000F407000043
:10507400FA0700000A080000030800000B080000FB
:105084000108000005080000F8070000FF07000001
:10509400FA07000005080000FF0F0000C90800001F
:1050A400E9090000F6070000D1090000020500002C
:1050B400BC090000330800004A060000480900004B
:1050C400D40500002C0A0000BA0700004F090000B4
:1050D400FC060000E309000083070000CF0700007E
:1050E4001B0900003C060000F2080000FE07000057
:1050F4003208000069080000DA0700002A080000EE
:10510400E907000036080000120800002D0800001E
:10511400C107000035080000290700003709000016
:10512400AE0700004E070000DD070000B7070000CF
:105134004A080000150800001C0800000E080000C2
:1051440000080000F107000012080000EB0700004F
:1051540001080000E407000005080000EC07000057
:10516400FE070000F8070000FE070000E407000047
:10517400F807000005080000FD070000080800000B
:10518400F9070000FC070000FD070000FD07000010
:1051940005080000FB0700004B0A0000720700002E
:1051A400D4070000300700007E0800001F0800003C
:1051B40019080000E3070000F40700000E080000CF
:1051C4002A080000F8070000FF0700000708000095
:1051D400FA07000001080000FF070000E6070000CE
:1051E400F80700000508000017080000F707000092
:1051F400F507000000080000E0070000F6070000C3
:10520400050800000108000001080000FD07000077
:1052140001080000DB0700002F000000580F000009
:10522400B80B00005506000099080000FD090000B5
:105234000409000077070000B206000027080000F8
:105244008F08000007080000CA070000F6070000E6
:105254003408000003080000E7070000E507000029
:105264000D0800000F08000000080000E10700001E
:1052740003080000F90700001208000008080000F5
:10528400F407000008080000E50700000D0800000E
:10529400F5070000DE070000A30800007A070000FD
:1052A4002607000013080000C6080000D907000004
:1052B400EE070000F40700003F080000F7070000B5
:1052C400EF070000FC07000006080000FA070000D2
:1052D400030800004D060000FF0F0000F602000066
:1052E400630E0000B4000000E00F0000440600005C
:1052F4008B070000D7080000EA060000FE08000043
:10530400F3080000CB070000160700008D09000019
:10531400BB060000B508000089040000610200001B
:10532400640700004E080000130A0000980B0000F8
:105334004609000054090000770400004E090000EB
:1053440013050000140A0000F80700006B070000B2
:105354003F090000B807000041080000B50800003C
:105364005E070000CC0700006F080000A3070000E0
:105374007E080000E8070000CE0700004B0800008C
:10538400CD0700002B080000B90700002508000025
:10539400FB070000A1070000580700007407000085
:1053A4001C080000E0070000120800004308000089
:1053B400E1070000260800000E080000E4070000D2
:1053C400FA07000000080000F00700000D080000C4
:1053D400F8070000220800001D080000E60700008E
:1053E40005080000110800003F080000170800002D
:1053F4001908000039080000DE0700000308000057
:105404000008000000080000FF0700000208000078
:1054140011080000EC090000FF0F00008F080000D5
:105424004204000066050000BF0800006806000092
:1054340089060000790600005F080000B608000035
:105444003A080000D0070000FA0700003108000005
:10545400FC070000F90700000B0800000808000022
:10546400EF0700001A08000003080000E907000025
:105474001108000003080000F507000001080000FF
:10548400060800000508000004080000FF070000EB
:105494000108000000000000D2010000AA0500007D
:1054A400880700006B0C00001D0E0000A60A000017
:1054B400FE080000C103000093090000D2040000AC
:1054C400980A00007A080000900700009407000082
:1054D400E8080000A607000014080000C708000040
:1054E4004B060000F8080000800700003B0800009D
:1054F400570800006E0700002D0800001F08000078
:1055040041080000EB07000004080000DC0700006D
:10551400F60700003D0600007C0800001E0800009D
:105524003F07000063070000030800003C07000079
:10553400B9070000E3070000F307000009080000B2
:105544001508000001080000F4070000F40700003B
:10555400D6070000F5070000410800001508000008
:1055640004080000F9070000F9070000F50700002F
:10557400FC070000F907000001080000FC07000018
:10558400FC070000FE070000FB0700000108000004
:10559400F8070000170700004F080000CF020000C2
:1055A400FD0F000000000000510D0000EE0400009B
:1055B400910800008D0800002B090000E10700009D
:1055C400E20700004F0700004C0700000709000035
:1055D4008C0500008C0900009D060000F207000005
:1055E4000209000018070000A60800009207000046
:1055F400D307000053080000CD070000190800007D
:10560400E60700002C080000EE0700000408000074
:10561400F3070000FF0F0000D90E0000DD050000B5
:1056240089070000F6080000980800001E05000025
:105634001D060000430900002109000022080000A3
:105644008C070000BD070000440800002C0800007F
:10565400D9070000F807000025080000EF07000044
:10566400B107000002080000010800002B08000038
:10567400F9070000020800000D08000006080000F9
:105684000D080000ED0700000708000002080000F4
:10569400C30900008006000042090000AC060000B7
:1056A4002C0800003F070000DC070000270800006A
:1056B40014080000EC070000000800000D080000BA
:1056C40009080000F4070000FA07000002080000BF
:1056D40029090000FB0B0000CF010000FF0F0000B0
:1056E400000000002B0F00003304000051080000EC
:1056F400FE090000B2040000DD0A000023070000D8
:10570400AD070000A2070000610900008406000044
:1057140002080000FF070000000000003F00000036
:105724007F000000BF000000FF0000003F010000F8
:105734007F010000BF010000FF0100003F020000E4
:105744007F020000BF020000FF0200003F030000D0
:105754007F030000BF030000FF0300003F040000BC
:105764007F040000BF040000FF0400003F050000A8
:105774007F050000BF050000FF0500003F06000094
:105784007F060000BF060000FF0600003F07000080
:105794007F070000BF070000FF0700003F0800006C
:1057A4007F080000BF080000FF0800003F09000058
:1057B4007F090000BF090000FF0900003F0A000044
:1057C4007F0A0000BF0A0000FF0A00003F0B000030
:1057D4007F0B0000BF0B0000FF0B00003F0C00001C
:1057E4007F0C0000BF0C0000FF0C00003F0D000008
:1057F4007F0D0000BF0D0000FF0D00003F0E0000F4
:105804007F0E0000BF0E0000FF0E00003F0F0000DF
:105814007F0F0000BF0F0000FF0F0000BF0F00004C
:105824007F0F00003F0F0000FF0E0000BF0E0000BE
:105834007F0E00003F0E0000FF0D0000BF0D0000B2
:105844007F0D00003F0D0000FF0C0000BF0C0000A6
:105854007F0C00003F0C0000FF0B0000BF0B00009A
:105864007F0B00003F0B0000FF0A0000BF0A00008E
:105874007F0A00003F0A0000FF090000BF09000082
:105884007F0900003F090000FF080000BF08000076
:105894007F0800003F080000FF070000BF0700006A
:1058A4007F0700003F070000FF060000BF0600005E
:1058B4007F0600003F060000FF050000BF05000052
:1058C4007F0500003F050000FF040000BF04000046
:1058D4007F0400003F040000FF030000BF0300003A
:1058E4007F0300003F030000FF020000BF0200002E
:1058F4007F0200003F020000FF010000BF01000022
:105904007F0100003F010000FF000000BF00000015
:105914007F0000003F000000000000001F000000A6
:105924003F0000005F0000007F0000009F000000B7
:10593400BF000000DF000000FF0000001F010000A6
:105944003F0100005F0100007F0100009F01000093
:10595400BF010000DF010000FF0100001F02000082
:105964003F0200005F0200007F0200009F0200006F
:10597400BF020000DF020000FF0200001F0300005E
:105984003F0300005F0300007F0300009F0300004B
:10599400BF030000DF030000FF0300001F0400003A
:1059A4003F0400005F0400007F0400009F04000027
:1059B400BF040000DF040000FF0400001F05000016
:1059C4003F0500005F0500007F0500009F05000003
:1059D400BF050000DF050000FF0500001F060000F2
:1059E4003F0600005F0600007F0600009F060000DF
:1059F400BF060000DF060000FF0600001F070000CE
:105A04003F0700005F0700007F0700009F070000BA
:105A1400BF070000DF070000FF0700001F080000A9
:105A24003F0800005F0800007F0800009F08000096
:105A3400BF080000DF080000FF0800001F09000085
:105A44003F0900005F0900007F0900009F09000072
:105A5400BF090000DF090000FF0900001F0A000061
:105A64003F0A00005F0A00007F0A00009F0A00004E
:105A7400BF0A0000DF0A0000FF0A00001F0B00003D
:105A84003F0B00005F0B00007F0B00009F0B00002A
:105A9400BF0B0000DF0B0000FF0B00001F0C000019
:105AA4003F0C00005F0C00007F0C00009F0C000006
:105AB400BF0C0000DF0C0000FF0C00001F0D0000F5
