:020000040800F2
:1000000000000220A92200086D2200086F220008CB
:100010007122000873220008752200080000000009
:10002000000000000000000000000000772200082F
:1000300079220008000000007B2200087D220008D1
:10004000F9220008F9220008F9220008F922000824
:10005000F9220008F922000845060008F9220008E4
:10006000F9220008F9220008F9220008F922000804
:10007000F9220008F9220008F9220008F9220008F4
:1000800085220008F9220008F9220008F922000858
:10009000F9220008F9220008F9220008F9220008D4
:1000A000F9220008F9220008F9220008F9220008C4
:1000B000F9220008F9220008F9220008F9220008B4
:1000C000F9220008F9220008F9220008F9220008A4
:1000D000F9220008F9220008F9220008F922000894
:1000E000F9220008F9220008F9220008F922000884
:1000F000F9220008F9220008F9220008F922000874
:10010000F9220008F9220008F9220008F922000863
:10011000F9220008F9220008F9220008F922000853
:10012000F9220008F9220008F9220008F922000843
:10013000F92200080000000000000000F922000879
:10014000F9220008F9220008F9220008F922000823
:10015000F9220008F9220008F9220008F922000813
:10016000F9220008F9220008F9220008F922000803
:10017000F9220008F9220008F92200080000000016
:1001800000000000F922000800000000000000004C
:10019000F92200080000000000000000F922000819
:1001A000000000000000000000000000F92200082C
:1001B000F9220008F9220008F9220008F9220008B3
:0401C000F922000818
:1001C40053B94AB9002908BF00281CBF4FF0FF31BA
:1001D4004FF0FF3000F00CB8ADF1080C6DE904CE1F
:1001E40002F0B6F8DDF804E0DDE9022304B070475C
:1001F400704700BF10B5054C237833B9044B13B1D5
:100204000448AFF300800123237010BD4424002070
:10021400000000004C26000808B5034B1BB103493D
:100224000348AFF3008008BD00000000482400200C
:100234004C26000882B000EB40000023019304E048
:1002440000BF00BF019B01330193019B8342F7D39D
:1002540002B0704710B51420FFF7ECFF094CA369F6
:1002640043F40043A3611420FFF7E4FFA36943F0C0
:100274000043A3611420FFF7DDFFA36943F40043A7
:10028400A36110BD0008024010B504463D4A9369BD
:1002940043F48043936110F0800F41D13A4A93694B
:1002A40043F00043936114F0400F40D0364A936901
:1002B40043F48053936114F0200F3ED0334A936982
:1002C40043F40073936114F0100F3CD02F4A9369E8
:1002D40043F480739361FFF7BDFF14F0080F38D027
:1002E400294A936943F40043936114F0040F36D010
:1002F400254A936943F48053936114F0020F34D078
:10030400224A936943F40073936114F0010F32D0CD
:100314001E4A936943F480739361FFF79BFF10BDFA
:10032400A2F50062936943F400439361BBE7164A64
:10033400936943F080539361BDE7144A936943F092
:1003440000739361BFE7114A936943F0807393612B
:10035400C1E70D4A936943F000439361C5E70A4A34
:10036400936943F080539361C7E7084A936943F064
:1003740000739361C9E7054A936943F080739361FD
:10038400CBE700BF00080240000002400004024026
:1003940038B50546002403E0FFF776FF0134E4B2E4
:1003A400285D0028F8D138BD10B504463F4A93694A
:1003B40043F08043936110F0800F45D13C4A936928
:1003C40043F00043936114F0400F44D0384A9369DA
:1003D40043F48053936114F0200F42D0354A93695B
:1003E40043F40073936114F0100F40D0314A9369C1
:1003F40043F480739361FFF72DFF14F0080F3CD092
:100404002B4A936943F40043936114F0040F3AD0E8
:10041400274A936943F48053936114F0020F38D050
:10042400244A936943F40073936114F0010F36D0A6
:10043400204A936943F480739361FFF70BFF40F6FE
:10044400B830FFF7F7FE10BDA2F50062936943F4DC
:1004540000439361B7E7164A936943F0805393616D
:10046400B9E7144A936943F000739361BBE7114AF7
:10047400936943F080739361BDE70D4A936943F038
:1004840000439361C1E70A4A936943F0805393613F
:10049400C3E7084A936943F000739361C5E7054ACB
:1004A400936943F080739361C7E700BF000802407B
:1004B400000002400004024008B5194B1A6B42F0D8
:1004C40001021A631A6B42F002021A631A6B42F0B9
:1004D40004021A63134A136843F08243136002F55B
:1004E4008062136843F4A023136002F580621368EA
:1004F40043F0A043136047F23050FFF79BFE3320D4
:10050400FFF752FF3220FFF74FFF0C20FFF74CFF9D
:100514002820FFF749FF0120FFF746FF08BD00BF71
:1005240000380240000002402DE9F04F89B003ADCD
:1005340000240394049405940694079400942F4B88
:100544001A6B42F080021A631A6B02F08002009266
:10055400009A01941A6B42F001021A631A6B02F0BA
:1005640001020192019A02941A6B42F002021A6388
:100574001B6B03F002030293029B4FF4404BCDF834
:100584000CB001270497DFF880A02946504600F0FC
:1005940003FD4FF44079CDF80C902946184800F03B
:1005A400FBFC4FF41048CDF80C80164E294630461B
:1005B40000F0F2FC22465946504600F0DDFD22468A
:1005C40049460F4800F0D8FD22464146304600F027
:1005D400D3FD03974FF488130493059729463046B7
:1005E40000F0DAFC22460221062000F097FA0620E9
:1005F40000F0A4FA09B0BDE8F08F00BF0038024053
:1006040000040240000002400008024000B583B02C
:1006140000210191094B1A6B42F400121A631B6BFF
:1006240003F400130193019B0A46102000F076FAAC
:10063400102000F083FA03B05DF804FB0038024098
:1006440070B5012000F0A0FD00F00EFA224B1B68EB
:10065400C31AC82B00D870BD1F4B18601F4D2A68E1
:10066400D36823F40073D3601D4E304600F094FB2E
:100674001C4C237801331C4A82FB031202EB420216
:10068400A3EB4203DBB2237020784FF48073174A44
:100694001268174951F82010304600F049FB2A68C7
:1006A400D36843F40073D36001222021114800F081
:1006B40063FD0120FFF778FE0220FFF775FE0E4868
:1006C400FFF766FEC020FFF76FFE22780B4B53F84E
:1006D4002200FFF75DFEBEE7642400201025002001
:1006E4006824002060240020ABAAAA2A300000203D
:1006F40018000020000002406426000800000020CA
:1007040072B6FEE700B58FB000230A930B930C93E7
:100714000D93089309930193029303930493059310
:100724000693079337484FF080420260436083602A
:10073400354A1268C2600361836101F05FFA0028E0
:1007440053D14FF480530A930AA92E4801F0BCFBFD
:1007540000284CD12B4801F07DFA002849D1002310
:100764000893099308A9274801F038FD002842D1CD
:1007740000220192244B1B68013B029303920592D1
:1007840001A9204801F0F6FA002836D1002300938D
:100794001E4A116B41F400111163126B02F4001232
:1007A4000092009A1A481B4A02604FF0C0624260ED
:1007B40040228260C3604FF4806202614FF4805231
:1007C40042614FF4804282614FF48072C2614FF4FF
:1007D40000320262436200F045FA80B9094A0C4BC8
:1007E40053629A630FB05DF804FBFFF789FFFFF7CC
:1007F40087FFFFF785FFFFF783FFFFF781FFFFF711
:100804007FFF00BF10250020340000200038024084
:10081400682400208860024000B58FB000230A934A
:100824000B930C930D9308930993019302930393F1
:1008340004930593069307931E481F4A026043607E
:10084400836040F6FF72C2600361836101F0D6F9F0
:1008540028BB4FF480530A930AA9164801F034FBCD
:10086400F8B9144801F022FAE8B90023089309936F
:1008740008A9104801F0B2FCB8B960230193002321
:10088400029303930593082201A90A4801F0A1FAEF
:1008940068B9084800F0EEFC0FB05DF804FBFFF700
:1008A4002FFFFFF72DFFFFF72BFFFFF729FFFFF7C0
:1008B40027FF00BFC82400200004004010B594B0F6
:1008C40007AC34220021204601F015FD00230293D9
:1008D40003930493059306930093194A116C41F012
:1008E40080511164126C02F080520092009A0193BC
:1008F40014490A6822F4404242F480420A600A68B9
:1009040002F440420192019A0222079201220A92C1
:1009140010220B920D93204600F01CFE60B90F23A9
:1009240002930021039104910591069102A800F01D
:10093400CDFC18B914B010BDFFF7E2FEFFF7E0FEDE
:10094400003802400070004008B500F067F8FFF777
:10095400B5FFFFF7E9FDFFF759FEFFF7D3FEFFF7F9
:100964005BFF0821134801F0BBFB134C0021204618
:1009740001F038FB4FF48073104A12681049114893
:1009840000F0D6F9FFF798FD0120FFF70DFD0220D6
:10099400FFF70AFD0C48FFF7FBFCC020FFF704FD3E
:1009A4000A48FFF7F5FC2268D36843F40073D36068
:1009B400FEE700BFC82400201025002030000020DE
:1009C4003820002068240020702600087C260008B7
:1009D40010B504460E4B1A784FF47A73B3FBF2F356
:1009E4000C4A1068B0FBF3F000F0ACF868B90F2CB7
:1009F40001D901200AE0002221464FF0FF3000F027
:100A04008DF8054B1C60002000E0012010BD00BFE4
:100A140038240020402400203C24002008B50B4B3F
:100A24001A6842F400721A601A6842F480621A600A
:100A34001A6842F480721A60032000F05DF80F20F7
:100A4400FFF7C6FF00F0AEFB002008BD003C0240EB
:100A5400034A1168034B1B780B441360704700BFB3
:100A64005825002038240020014B1868704700BF27
:100A740058250020002807DB00F01F02400901234D
:100A84009340024A42F82030704700BF00E100E082
:100A9400002808DB0901C9B200F1604000F561409B
:100AA40080F80013704700F00F000901C9B2014B30
:100AB4001954704714ED00E000B500F00700C0F1D0
:100AC400070CBCF1040F28BF4FF0040C031D062BC8
:100AD4000FD9C31E4FF0FF3E0EFA0CF021EA0001BD
:100AE40099400EFA03FE22EA0E0241EA02005DF882
:100AF40004FB0023EEE70000074AD36823F4E06315
:100B04001B041B0C000200F4E060034343F0BF63CA
:100B140043F40033D360704700ED00E010B50446A1
:100B2400054BD868C0F30220FFF7C6FF01462046F4
:100B3400FFF7AEFF10BD00BF00ED00E008B5FFF702
:100B440099FF08BD0138B0F1807F0BD24FF0E0234C
:100B54005861054AF02182F8231000209861072289
:100B64001A6170470120704700ED00E030B4056859
:100B74002C6824F480242C60046863608368402B10
:100B840005D0036899600368DA6030BC7047036875
:100B94009A600368D960F8E710B40368D9B21039D1
:100BA4000A4AA2FB01421209094CA25CC2655F29F0
:100BB40007D96FF3090304338365806D5DF8044B33
:100BC40070476FF309038365F7E700BFABAAAAAACE
:100BD400B4260008836A826992B9012B0AD0022BD9
:100BE40002D00BB100207047C36A13F0807F28D174
:100BF40000207047C36AB3F1C07F24D0002070473F
:100C0400B2F5005F09D0022B25D9032B25D1C36A85
:100C140013F0807F23D100207047032B03D8DFE833
:100C240003F01404140A00207047C36A13F0807F91
:100C34000DD100207047C36AB3F1C07F09D00020F2
:100C44007047012070470120704701207047012040
:100C54007047012070470120704700207047012031
:100C64007047000070B50446FFF7FEFE002C5BD011
:100C74000546022384F83530002384F83430226892
:100C8400136823F00103136023681A6812F0010F3C
:100C94000AD0FFF7E9FE431B052BF5D92023636532
:100CA400032084F8350070BD1A6820491140626839
:100CB400A0680243E068024320690243606902437A
:100CC400A0690243E0690243206A02430A43616A5D
:100CD40004291ED01A602668756925F00705636A21
:100CE4001D43042B07D1A36A1D43E36A1BB12046AD
:100CF400FFF770FF90B975612046FFF74DFFE26D75
:100D04003F239340836000206065012384F83530DD
:100D1400C9E7E16A206B01430A43DBE740236365CB
:100D2400012084F83500BEE70120BCE73F8010F0C5
:100D340038B50446856D90F8340001282AD0012086
:100D440084F8340094F83500012804D0002384F892
:100D54003430022038BD022084F83500002060655C
:100D64002046FFF703FFE26D3F239340AB60226808
:100D7400136843F016031360236C23B122681368CD
:100D840043F0080313602268136843F001031360FF
:100D94000020DFE70220DDE790F83530022B03D096
:100DA4008023436501207047052380F835300268AD
:100DB400136823F00103136000207047F0B583B07B
:100DC400044600230193724B1D68724BA3FB053547
:100DD400AD0A876D3E68C26D08239340334210D03C
:100DE40003681A6812F0040F0BD01A6822F0040288
:100DF4001A60C26D08239340BB60436D43F0010346
:100E04004365E26D01239340334209D0226852695D
:100E140012F0800F04D0BB60636D43F0020363657E
:100E2400E26D04239340334209D02268126812F021
:100E3400020F04D0BB60636D43F004036365E26D8D
:100E440010239340334224D02268126812F0080F12
:100E54001FD0BB6023681A6812F4802F0DD01B6862
:100E640013F4002F04D1236C9BB12046984710E063
:100E7400A36C73B1204698470BE01A6812F4807F84
:100E840003D11A6822F008021A60236C0BB12046C1
:100E94009847E26D20239340334254D0226812686D
:100EA40012F0100F4FD0BB6094F83530052B0ED0E4
:100EB40023681A6812F4802F33D01B6813F4002FB0
:100EC4002AD1636C002B3ED0204698473BE0226831
:100ED400136823F0160313602268536923F0800318
:100EE4005361236CA3B12268136823F008031360D1
:100EF400E26D3F239340BB60012384F83530002327
:100F040084F83430236D002B3FD0204698473CE0D2
:100F1400A36C002BE7D1EBE7E36BA3B12046984722
:100F240011E01A6812F4807F09D11A6822F01002C5
:100F34001A60012384F83530002384F83430E36BDD
:100F44000BB120469847636DFBB1636D13F0010F3D
:100F540017D0052384F835302268136823F0010381
:100F64001360019B01330193AB4204D823681B68CF
:100F740013F0010FF5D1012384F83530002384F8F0
:100F84003430E36C0BB12046984703B0F0BD00BF8A
:100F940040240020B5814E1B00230F2B00F2E38078
:100FA40070B582B065E085684FEA430E032404FA05
:100FB4000EF425EA0405CC6804FA0EF42C4384608C
:100FC400446824EA02044A68C2F300129A402243A5
:100FD40042605CE0DC08083450F8242003F0070584
:100FE400AD004FF00F0E0EFA05FE22EA0E0E0A694E
:100FF400AA4042EA0E0240F824205CE0062200E007
:10100400002202FA0EF22A430234574D45F82420F6
:10101400564A94686FEA0C0224EA0C054E6816F4EA
:10102400801F01D04CEA0405504CA560E46802EA34
:1010340004054E6816F4001F01D04CEA04054B4C1D
:10104400E560646802EA04054E6816F4003F01D0C6
:101054004CEA0405454C6560246822404D6815F44B
:10106400803F01D04CEA0402404C226001330F2B34
:1010740077D801229A400C6804EA020C32EA04048C
:10108400F4D14C6804F00304013C012C8BD94A6868
:1010940002F00302032A09D0C4685D000322AA40B7
:1010A40024EA02048A68AA402243C2604A6802F021
:1010B4000302022A8ED004684FEA430E032202FA86
:1010C4000EF224EA02044A6802F0030202FA0EF263
:1010D400224302604A6812F4403FC7D000220192C2
:1010E400234A546C44F480445464526C02F48042A5
:1010F4000192019A9C08A51C1B4A52F8255003F042
:10110400030E4FEA8E0E0F2202FA0EF225EA0205B2
:10111400184A90423FF474AF02F58062904216D0B0
:1011240002F58062904214D002F58062904212D09F
:1011340002F58062904210D002F5806290420ED097
:1011440002F5806290423FF459AF072259E7012229
:1011540057E7022255E7032253E7042251E7052209
:101164004FE702B070BD704700380140003C0140B9
:1011740000380240000002400AB18161704709044E
:10118400816170477047000008B5054B5B690342F5
:1011940000D108BD024B5861FFF7F4FFF9E700BF27
:1011A400003C014082B0002100910B4B5A6C42F488
:1011B40080425A645A6C02F480420092009A01916F
:1011C4001A6C42F080521A641B6C03F08053019332
:1011D400019B02B0704700BF0038024010B582B0D6
:1011E4000368B3F1804F04D01E4A93422CD002B05E
:1011F40010BD0446002300931B4A116C41F0010109
:101204001164126C02F001020092009A1748184A05
:1012140002604FF0C06242608360C3604FF480623A
:1012240002614FF4805242614FF480428261C36193
:1012340003624362FFF716FD18B90C4B63629C63AB
:10124400D5E7FFF75DFAF8E700230193064B1A6C24
:1012540042F002021A641B6C03F002030193019B27
:10126400C5E700BF000400400038024068240020A5
:101274008860024000B587B0002301930293039372
:101284000493059302680E4B9A4202D007B05DF8AE
:1012940004FB002300930B4B1A6B42F002021A6307
:1012A4001B6B03F002030093009B012301930223B1
:1012B4000293059301A90448FFF76EFEE6E700BF19
:1012C400000400400038024000040240002800F0FE
:1012D4009B8070B50D4604464F4B1B6803F00F030B
:1012E4008B4208D2CBB24C4A1370136803F00F033D
:1012F4008B4240F08B80236813F0020F17D013F059
:10130400040F04D0454A936843F4E0539360236880
:1013140013F0080F04D0414A936843F46043936088
:101324003E4A936823F0F003A1680B43936023685B
:1013340013F0010F32D06368012B21D09A1E012AC9
:1013440025D9364A126812F0020F61D033498A68EF
:1013540022F0030213438B60FFF786FB06462F4BF4
:101364009B6803F00C036268B3EB820F16D0FFF79F
:101374007BFB801B41F288339842F0D9032042E082
:10138400264A126812F4003FE0D101203BE0234AD0
:10139400126812F0007FD9D1012034E01E4B1B6883
:1013A40003F00F03AB4207D9EAB21B4B1A701B6858
:1013B40003F00F03AB422DD1236813F0040F06D0C2
:1013C400164A936823F4E053E1680B43936023685F
:1013D40013F0080F07D0114A936823F4604321697E
:1013E40043EAC103936000F021F80C4B9B68C3F3FC
:1013F40003130B4AD35CD8400A4B18600A4B186895
:10140400FFF7E6FA002070BD012070470120FAE7DB
:101414000120F8E70120F6E7003C024000380240D2
:10142400BC260008402400203C24002008B5464B7C
:101434009B6803F00C03082B05D00C2B43D0042B22
:101444007FD1424819E0404B5A6802F03F025B6882
:1014540013F4800F12D03C4B5968C1F388113B48F8
:101464000023A1FB0001FEF7ABFE374B5B68C3F31F
:10147400014301335B00B0FBF3F008BD324B586805
:10148400C0F388104FEA401CBCEB000C6EEB0E0E50
:101494004FEA8E1343EA9C634FEA8C11B1EB0C01C3
:1014A40063EB0E03DB0043EA5173C90011EB000C3C
:1014B40043F10003990200234FEA8C2041EA9C5136
:1014C400FEF77EFED1E7204B5A6802F03F025B68CC
:1014D40013F4800F10D01C4B5968C1F388111B48BA
:1014E4000023A1FB0001FEF76BFE174B5B68C3F3FF
:1014F4000273B0FBF3F0C0E7134B5868C0F38810D5
:101504004FEA401CBCEB000C6EEB0E0E4FEA8E1340
:1015140043EA9C634FEA8C11B1EB0C0163EB0E03BD
:10152400DB0043EA5173C90011EB000C43F10003E3
:10153400990200234FEA8C2041EA9C51FEF740FEB9
:10154400D3E7034899E700BF0038024040787D01A3
:101554000024F400002800F0018270B582B0044633
:10156400036813F0010F41D0994B9B6803F00C03FF
:10157400042B32D0964B9B6803F00C03082B27D026
:10158400934B9B6803F00C030C2B59D06368B3F5A1
:10159400803F5BD0B3F5A02F5ED08D4B1A6822F448
:1015A40080321A601A6822F480221A606368002B61
:1015B4005CD0FFF759FA0546854B1B6813F4003FCE
:1015C40014D1FFF751FA401B6428F5D90320CCE16C
:1015D4007F4B5B6813F4800FD2D07D4B1B6813F4F0
:1015E400003F03D06368002B00F0BA81236813F036
:1015F400020F60D0764B9B6813F00C0F4AD0744BEB
:101604009B6803F00C03082B3FD0714B9B6803F0DD
:101614000C030C2B69D0E368002B75D06D4B0122B1
:101624001A60FFF721FA0546694B1B6813F0020F95
:1016340061D1FFF719FA401B0228F5D9032094E180
:10164400634B5B6813F4800FA0D0C6E7604A13684D
:1016540043F480331360A9E75D4B1A6842F4802297
:101664001A601A6842F480321A609FE7FFF7FCF9A7
:101674000546574B1B6813F4003FB7D0FFF7F4F946
:10168400401B6428F5D903206FE1514B5B6813F4C8
:10169400800FBAD14E4B1B6813F0020F03D0E368DE
:1016A400012B40F05F814A4A136823F0F803216953
:1016B40043EAC1031360236813F0080F49D0636938
:1016C400002B33D0434B0122C3F8802EFFF7CCF913
:1016D40005463F4B5B6F13F0020F3AD1FFF7C4F995
:1016E400401B0228F5D903203FE1394B5B6813F412
:1016F400800F90D1CEE7364A136823F0F8032169AE
:1017040043EAC1031360D6E7324B00221A60FFF7A5
:10171400ABF905462E4B1B6813F0020FCBD0FFF735
:10172400A3F9401B0228F5D903201EE1294B00220E
:10173400C3F8802EFFF798F90546254B5B6F13F02D
:10174400020F06D0FFF790F9401B0228F5D90320B9
:101754000BE1236813F0040F76D01D4B1B6C13F0C0
:10176400805F33D100230193194B1A6C42F08052ED
:101774001A641B6C03F080530193019B0125164BE3
:101784001B6813F4807F29D0A368012B3AD0052B62
:101794003ED00F4B1A6F22F001021A671A6F22F023
:1017A40004021A67A368002B3CD0FFF75DF90646D4
:1017B400074B1B6F13F0020F45D1FFF755F9801B40
:1017C40041F288339842F3D90320CEE00025D6E7CE
:1017D4000038024000004742007000406B4A136822
:1017E40043F480731360FFF73FF90646674B1B68A9
:1017F40013F4807FC8D1FFF737F9801B0228F5D98D
:101804000320B2E0624A136F43F001031367C9E790
:101814005F4B1A6F42F004021A671A6F42F001021A
:101824001A67BFE7FFF720F90646594B1B6F13F001
:10183400020F08D0FFF718F9801B41F28833984251
:10184400F3D9032091E0EDB9A369002B00F08C805B
:101854004F4A926802F00C02082A54D0022B17D087
:101864004C4B00221A66FFF7FFF80446484B1B68EE
:1018740013F0007F45D0FFF7F7F8001B0228F5D9D5
:10188400032072E0424A136C23F080531364DBE7B5
:10189400404B00221A66FFF7E7F805463C4B1B68ED
:1018A40013F0007F06D0FFF7DFF8401B0228F5D9BC
:1018B40003205AE0E369226A1343626A43EA82130B
:1018C400A26A5208013A43EA0243E26A43EA026323
:1018D400226B43EA02732E4A53602E4B01221A668E
:1018E400FFF7C2F804462A4B1B6813F0007F06D1A9
:1018F400FFF7BAF8001B0228F5D9032035E00020D1
:1019040033E0002031E0012B31D0214B5B6803F43C
:101914008001E26991422CD103F03F02216A8A429C
:1019240029D1616A47F6C0721A40B2EB811F24D1F3
:1019340003F44031A26A5208013AB1EB024F1ED1BE
:1019440003F07062E16AB2EB016F1AD103F0E04375
:10195400226BB3EB027F16D1002006E00120704712
:10196400012002E0012000E0002002B070BD01204F
:10197400FBE70120F9E70120F7E70120F5E7012063
:10198400F3E70120F1E70120EFE700BF007000401A
:10199400003802400000474230B4036A026A22F071
:1019A400010202624268846924F0730C0C6844EA00
:1019B4000C0423F0020C8B6843EA0C03114DA8427B
:1019C40003D005F58065A84205D123F00803CD684E
:1019D4002B4323F004030B4DA84203D005F5806587
:1019E400A84207D122F440724D6945EA020C8A6983
:1019F40042EA0C02426084614A684263036230BC7A
:101A0400704700BF0000014030B4036A026A22F448
:101A1400807202624268C46924F0730C0C6844EA60
:101A24000C0523F400738C6843EA0423114CA04290
:101A340003D004F58064A04206D123F40063CC688B
:101A440043EA042323F480630A4CA04203D004F540
:101A54008064A04207D122F440524C6942EA041245
:101A64008C6942EA04124260C5614A68C263036237
:101A740030BC70470000014030B4036A026A22F4AB
:101A8400805202624468C26922F4E6420D6842EA66
:101A9400052223F400538D6843EA0533094DA84217
:101AA40003D005F58065A84204D124F480444D692F
:101AB40044EA85144460C2614A680264036230BC2B
:101AC400704700BF0000014010B4036A046A24F0A8
:101AD40001040462846924F0F00C4CEA021223F03D
:101AE4000A030B43826103625DF8044B704710B430
:101AF400036A046A24F010040462846924F4704CB8
:101B04004CEA023223F0A00343EA01138261036228
:101B14005DF8044B7047836823F070030B4343F074
:101B24000703836070477047704700000368324AB8
:101B3400904212D0B0F1804F0FD0A2F57C42904277
:101B44000BD002F58062904207D002F58062904289
:101B540003D002F57842904203D123F070034A681F
:101B64001343254A90422AD0B0F1804F27D0A2F5E2
:101B74007C42904223D002F5806290421FD002F54D
:101B8400806290421BD002F57842904217D002F551
:101B94007052904213D002F5806290420FD002F549
:101BA400806290420BD0A2F59832904207D002F5A1
:101BB4008062904203D002F58062904203D123F404
:101BC4004073CA68134323F080034A6913438A6845
:101BD400C2620A688262084A904203D002F58062B7
:101BE400904201D10A690263026842F00402026071
:101BF40001224261036070470000014040B310B508
:101C0400044690F83D30F3B1022384F83D30214678
:101C140051F8040BFFF78AFF012384F8463084F857
:101C24003E3084F83F3084F8403084F8413084F802
:101C3400423084F8433084F8443084F8453084F8E2
:101C44003D30002010BD80F83C30FFF7C7FADBE7D9
:101C54000120704740B310B5044690F83D30F3B10D
:101C6400022384F83D30214651F8040BFFF75EFF50
:101C7400012384F8463084F83E3084F83F3084F8F9
:101C8400403084F8413084F8423084F8433084F89A
:101C9400443084F8453084F83D30002010BD80F88D
:101CA4003C30FFF740FFDBE70120704740B310B53D
:101CB400044690F83D30F3B1022384F83D302146C8
:101CC40051F8040BFFF732FF012384F8463084F8FF
:101CD4003E3084F83F3084F8403084F8413084F852
:101CE400423084F8433084F8443084F8453084F832
:101CF4003D30002010BD80F83C30FFF715FFDBE7D6
:101D04000120704730B4036A026A22F010020262B2
:101D14004468826922F4E6420D6842EA052223F00F
:101D240020038D6843EA0513114DA84203D005F53D
:101D34008065A84206D123F08003CD6843EA0513E9
:101D440023F040030A4DA84203D005F58065A8425C
:101D540007D124F440644D6944EA85048D6944EA5A
:101D64008504446082614A688263036230BC7047C0
:101D74000000014090F83C30012B28D010B50446F7
:101D8400012380F83C300C2A1CD8DFE802F0071B42
:101D94001B1B0C1B1B1B111B1B1B16000068FFF7D6
:101DA400FBFD00200FE00068FFF7ACFF00200AE015
:101DB4000068FFF729FE002005E00068FFF75CFEDD
:101DC400002000E00120002384F83C3010BD0220F4
:101DD400704738B590F83C30012B66D004460D4668
:101DE400012380F83C300C2A5AD8DFE802F0075966
:101DF40059591B5959593059595944000068FFF72A
:101E0400CBFD2268936943F00803936122689369C8
:101E140023F0040393612268936929690B43936156
:101E240000203EE00068FFF76DFF2268936943F4E9
:101E3400006393612268936923F480639361226849
:101E44009369296943EA01239361002029E000682A
:101E5400FFF7DAFD2268D36943F00803D3612268EF
:101E6400D36923F00403D3612268D36929690B433E
:101E7400D361002015E00068FFF7FEFD2268D369F6
:101E840043F40063D3612268D36923F48063D3618C
:101E94002268D369296943EA0123D361002000E061
:101EA4000120002384F83C3038BD0220FCE710B444
:101EB400846824F47F4C42EA03220A4342EA0C0277
:101EC40082605DF8044B704790F83C30012B78D069
:101ED40010B50446012380F83C30022380F83D30DD
:101EE4000268936823F47F4323F0770393600B68BD
:101EF400602B4CD023D8402B54D011D8202B03D0A6
:101F04000AD80BB1102B05D119462068FFF703FE40
:101F1400002028E0012026E0302BF5D0012022E02B
:101F2400502B0AD1CA6849680068FFF7CDFD5021DB
:101F34002068FFF7F0FD002015E0012013E0B3F561
:101F4400805F3AD0B3F5005F14D0702B37D1CB68E3
:101F54004A6889680068FFF7AAFF2268936843F01B
:101F6400770393600020012384F83D30002384F834
:101F74003C3010BDCB684A6889680068FFF797FF5A
:101F84002268936843F4804393600020EBE7CA68B7
:101F940049680068FFF7ABFD60212068FFF7BBFDCF
:101FA4000020E0E7CA6849680068FFF78DFD40211A
:101FB4002068FFF7B0FD0020D5E70020D3E701201B
:101FC400D1E70220704701F01F014FF0010C0CFA19
:101FD40001FC036A23EA0C030362036A8A40134385
:101FE4000362704710B504460846002941D194F8AD
:101FF4003E30013B18BF0123002B6BD100284ED18A
:10200400022384F83E30012201462068FFF7DBFFFB
:102014002368324A934203D002F58062934203D18B
:102024005A6C42F400425A6423682C4A934246D0C4
:10203400B3F1804F43D0A2F57C4293423FD002F5E6
:10204400806293423BD002F58062934237D002F51E
:102054007842934233D002F5705293422FD0A2F5C6
:10206400943293422BD01A6842F001021A60002085
:102074002FE0042907D008290BD094F84130013B04
:1020840018BF0123B8E794F83F30013B18BF012380
:10209400B2E794F84030013B18BF0123ACE70428B1
:1020A40005D0082807D0022384F84130ABE7022387
:1020B40084F83F30A7E7022384F84030A3E79A6806
:1020C40002F00702062A07D01A6842F001021A60D9
:1020D400002010BD0120FCE70020FAE700000140C9
:1020E40010B504460846002941D194F83E30013B1E
:1020F40018BF0123002B6BD100284ED1022384F892
:102104003E30012201462068FFF75DFF2368324A12
:10211400934203D002F58062934203D15A6C42F495
:1021240000425A6423682C4A934246D0B3F1804F4C
:1021340043D0A2F57C4293423FD002F580629342A1
:102144003BD002F58062934237D002F57842934245
:1021540033D002F5705293422FD0A2F594329342B9
:102164002BD01A6842F001021A6000202FE00429E3
:1021740007D008290BD094F84130013B18BF012344
:10218400B8E794F83F30013B18BF0123B2E794F855
:102194004030013B18BF0123ACE7042805D00828D0
:1021A40007D0022384F84130ABE7022384F83F30A0
:1021B400A7E7022384F84030A3E79A6802F00702F5
:1021C400062A07D01A6842F001021A60002010BDE6
:1021D4000120FCE70020FAE70000014090F83C20D1
:1021E400012A3DD010B40346012280F83C2002228B
:1021F40080F83D2002685068946820F0700C0868EC
:1022040040EA0C0050601A68164882421AD0B2F1B3
:10221400804F17D0A0F57C40824213D000F5806037
:1022240082420FD000F5806082420BD000F57840E6
:10223400824207D000F57050824203D0A0F594305A
:10224400824204D124F08004496821439160012230
:1022540083F83D20002083F83C005DF8044B704770
:102264000220704700000140FEE7FEE7FEE7FEE7BC
:10227400FEE770477047704708B5FEF7E9FB08BDF5
:1022840008B50248FEF79AFD08BD00BF6824002087
:10229400034AD2F8883043F47003C2F88830704798
:1022A40000ED00E0DFF834D0FFF7F2FF0C480D49F1
:1022B4000D4A002302E0D458C4500433C4188C429D
:1022C400F9D30A4A0A4C002301E013600432A24203
:1022D400FBD300F019F8FEF737FB7047000002202B
:1022E4000000002044240020DC26000844240020B0
:1022F4005C250020FEE702440346934200D1704768
:1023040003F8011BF9E7000070B50D4B0D4D5B1B85
:102314009C100026A64209D100F096F90A4D0B4BF9
:102324005B1B9C100026A64205D170BD55F8043BEA
:1023340098470136EEE755F8043B98470136F2E733
:10234400D4260008D4260008D4260008D82600087D
:102354002DE9F047089D0F4604468C46002B48D1D2
:102364008A42164661D9B2FA82F34BB1C3F1200214
:1023740001FA03FC20FA02F29E4042EA0C0C9C4053
:102384004FEA164EB7B2BCFBFEF1220C0EFB11CC89
:1023940042EA0C4201FB07F0904209D9B21801F15C
:1023A400FF3C80F0EE80904240F2EB8002393244F0
:1023B400121AA4B2B2FBFEF00EFB102244EA02444D
:1023C40000FB07F7A74209D9341900F1FF3280F066
:1023D400DA80A74240F2D7803444023840EA014010
:1023E400E41B00211DB1DC400023C5E90043BDE826
:1023F400F0878B4206D90DB1C5E9000100210846DA
:10240400BDE8F087B3FA83F1002948D1BB4202D377
:10241400824200F20781841A67EB0302012094468A
:10242400002DE4D0C5E9004CE1E7002A00F09280D9
:10243400B2FA82F3002B40F0A8808A1A4FEA164EB3
:102444001FFA86FC0121200CB2FBFEF70EFB1722BB
:1024540040EA02420CFB07F0904207D9B21807F198
:10246400FF3802D2904200F2E2804746121AA4B228
:10247400B2FBFEF00EFB102244EA02440CFB00FC0B
:10248400A44507D9341900F1FF3202D2A44500F261
:10249400CB801046A4EB0C0440EA0740A2E7C1F14C
:1024A40020068B4022FA06FC4CEA030C07FA01F4DE
:1024B40020FA06F3F7404FEA1C49234300FA01F8D7
:1024C4001FFA8CFEB7FBF9F01C0C09FB107744EAE9
:1024D400074400FB0EF7A74202FA01F20AD91CEBEB
:1024E400040400F1FF3A80F09B80A74240F29880F8
:1024F40002386444E41B9FB2B4FBF9F309FB1344B0
:1025040047EA044403FB0EFEA64509D91CEB040468
:1025140003F1FF3780F08280A6457FD9023B6444F3
:1025240043EA0040A4EB0E04A0FB02E7BC4273465E
:10253400B94663D360D05DB1B8EB030264EB090420
:1025440004FA06F622FA01F31E43CC40C5E90064FE
:1025540000214CE76208480842EAC1710B0C43EAC7
:1025640000438AB242EA0342B3FBF6F1E407B446FD
:102574003746B6461F23B0FBF6F0D21B41EA0041B2
:1025840061E7614614E7104628E7C3F1200120FA09
:1025940001F29E4027FA01F19F403A434FEA164E5A
:1025A4001FFA86FCB1FBFEF70EFB1710110C41EA73
:1025B400004107FB0CF8884504FA03F43AD9711872
:1025C40007F1FF3001D288451FD8A1EB0801B1FB08
:1025D400FEF808FB0CF70EFB181192B242EA014216
:1025E400BA422FD2B21808F1FF31C6D2BA42C4D2CD
:1025F400A8F102013244C0E7F0459CD2BEEB0203CD
:1026040067EB0C070138B94695E7A6EB0808414487
:10261400B81EB1FBFEF808FB0CF7DCE73B467FE78E
:10262400504667E70846FBE63444023832E7023F87
:1026340032441BE7A1EB08013846B1FBFEF808FB66
:102644000CF7C8E7414698E7F8B500BFF8BC08BCEA
:102654009E467047F8B500BFF8BC08BC9E4670475C
:1026640057617665666F726D3A0000005761766552
:10267400666F726D3A20000053696E6500000000B9
:10268400536177746F6F746800000000547269615D
:102694006E676C65000000005069616E6F00000099
:1026A40047756974617200004472756D0000000022
:1026B40000061016000610160000000000000000BE
:0826C4000102030406070809E6
:0826CC0088FCFF7F0100000003
:0426D4001D020008DB
:0426D800F9010008FC
:1026DC007C26000884260008902600089C2600080A
:1026EC00A4260008AC26000838200020381C002046
:1026FC00381800203810002038080020380000203E
:10270C003C040040127A0000FF070000040800009F
:10271C00BF010000F10F0000810D0000A6080000B1
:10272C00EA080000CC0700004A070000B2050000D0
:10273C00A7060000F5080000A2080000CC07000066
:10274C00CD070000E3070000F2070000C7070000F8
:10275C00F10F0000280F0000750C00002808000085
:10276C00AE0A00006E090000640700003B06000082
:10277C005B070000BB0800002D0800009507000057
:10278C0009080000000800000E0800009A0600006E
:10279C009B090000950700003E0A00000808000095
:1027AC001407000071080000DD070000EC070000B2
:1027BC00EF07000025080000EA07000009080000E8
:1027CC000D080000FD070000FC070000FF0F0000D3
:1027DC004B070000C70200004C060000CB060000AF
:1027EC00A6050000C3060000100900008E070000BB
:1027FC00420700003309000088080000D6070000DB
:10280C00FE070000C1070000C207000046080000D8
:10281C00B1080000AE0900003F080000E507000009
:10282C00FC070000F107000000080000D6070000BC
:10283C001E0800000B080000FF0700000008000045
:10284C00040800000108000000080000F107000067
:10285C00590800003D080000B70700002F080000D1
:10286C000D08000002080000FE0700000008000030
:10287C00E8070000110800002D08000024080000E3
:10288C00FE070000FE07000004080000F60F000021
:10289C00E5020000E608000072040000CA0900000E
:1028AC00E8070000CD0700002E080000F707000025
:1028BC00F3070000FB07000026080000F4070000E7
:1028CC0001080000E8070000FC0700002E080000CB
:1028DC00340800000008000000080000F2070000A7
:1028EC00FB0700000108000001080000F70F0000C2
:1028FC00FF0F0000E90F0000A4070000E90500002D
:10290C00580800003A070000930600003A00000047
:10291C00E60500007B0A0000340900004D040000AD
:10292C001A050000E90700003909000052080000F0
:10293C005E0700006C08000084080000D20700004D
:10294C00D1070000BC070000FD07000016080000BE
:10295C00FD0700008F0800000C080000190800009B
:10296C000F080000F1070000F2070000F907000053
:10297C00040800000C080000C8070000FF07000056
:10298C0001080000FA07000004080000F30600002C
:10299C00BD06000062070000D20800000F0700000F
:1029AC0088080000D6070000FC070000F6070000AE
:1029BC0007080000F60700000B08000008080000DC
:1029CC0007080000FF070000EB0700004E0900009D
:1029DC00A307000016030000610800008309000033
:1029EC0093080000E20900005E090000590700008E
:1029FC00E6050000F107000095080000F90700004B
:102A0C0016080000E9070000450800005707000001
:102A1C00D60700000B0800004C080000F907000066
:102A2C00E70700000208000047080000E20700006A
:102A3C0004080000F1070000FB070000020800007A
:102A4C0009080000FB070000DE0700008E040000F0
:102A5C00A4090000F60D0000600900001A0A00002D
:102A6C00930A0000500700003B0700006F080000AD
:102A7C0022080000C6070000C20700004D08000035
:102A8C002108000029080000FF0F0000940300003B
:102A9C00CC0600007C0600003808000098080000F6
:102AAC00A20700002E08000002080000CE0700005C
:102ABC00090800000C080000F907000010080000CD
:102ACC000A080000200800000E0800007A07000029
:102ADC00B107000003080000E8070000EE07000043
:102AEC0006080000FE070000F10E0000EE050000D5
:102AFC00C7050000B7050000080500008E040000A3
:102B0C005D080000C30700001D06000095010000D1
:102B1C00000000001B030000D2080000DD080000CC
:102B2C00840700009F0800009B0900001C0800009F
:102B3C000807000078070000510800001A08000080
:102B4C003308000002080000360C0000BF0600002D
:102B5C000000000055060000CD070000D006000064
:102B6C00270700007009000050090000A0070000B2
:102B7C0065070000ED07000038080000050800009C
:102B8C0004080000F607000016000000980B000077
:102B9C0040090000F2080000900600007C080000CC
:102BAC00D00700003D080000F7070000FD070000FB
:102BBC00F8070000FE070000FD070000FA07000000
:102BCC00FF070000FF070000D60F0000FF0F0000FA
:102BDC00410B000017090000920C0000F0080000E7
:102BEC000507000077070000420800006608000097
:102BFC005B070000710700002C080000340800007F
:102C0C005F080000E60700009C070000B407000006
:102C1C00C50800001A080000E707000005080000BE
:102C2C000E080000DF070000F5070000FB0700009E
:102C3C00010800000708000003080000FE07000060
:102C4C000108000000080000B4070000850800001F
:102C5C00AF070000A3070000B4070000F107000055
:102C6C00FD070000060800004508000003080000EE
:102C7C00E50700000A080000F60700000108000044
:102C8C00FE070000C2070000AD050000EF080000C1
:102C9C003207000007080000AA080000A607000081
:102CAC002D080000DF070000E4070000EE0700001D
:102CBC0003080000F4070000FF0700000A080000EA
:102CCC000D0800002D070000B1080000DE07000011
:102CDC00DC07000072080000F20700000908000081
:102CEC00F6070000940900005D01000000000000E0
:102CFC0086040000C9090000810A0000B707000023
:102D0C008909000037080000DB02000055090000AB
:102D1C00850D00005C090000F7090000860A000020
:102D2C005307000059070000820800001F0800002C
:102D3C00BA070000D00700004F080000250800006B
:102D4C00280800008508000040070000B1070000BB
:102D5C003E080000F0070000F2070000FF0700002B
:102D6C001308000016080000EE0700000F08000012
:102D7C002408000030080000FD07000000080000D7
:102D8C00FF0700009E000000E30A00004F07000050
:102D9C00DB0A00002A07000005080000F407000009
:102DAC0003080000F50700000D08000024080000CF
:102DBC00EA07000003080000FC07000011080000EF
:102DCC00FC070000FA0F0000BF080000E10A000039
:102DDC00480900001E0600004C05000021080000F8
:102DEC00E0060000BC07000019090000AA0800005A
:102DFC000A080000BB0700002108000011080000B1
:102E0C00E4070000DC080000350800004E08000054
:102E1C0023080000F7070000000800000C08000061
:102E2C0006080000DE070000EF070000FB070000AB
:102E3C000408000000080000F60700000508000068
:102E4C0006080000AE010000B00600007907000083
:102E5C0087080000DC040000AB05000085070000BB
:102E6C00A6090000090900005F070000FA0700002E
:102E7C006008000001080000E4070000CF07000014
:102E8C00EF07000084050000020A0000510A000050
:102E9C00850700008E080000640700005B08000036
:102EAC00DE07000034080000E00700000408000002
:102EBC00F107000008080000ED070000F007000013
:102ECC000008000034090000A8080000BE0700003C
:102EDC00A50700002E0800000C080000FA070000EF
:102EEC00B0070000B2010000600B0000C10B000035
:102EFC00B00A0000680A00007409000055070000C1
:102F0C007F080000FF070000B2070000B2070000B6
:102F1C00960800003A0800003F080000BA050000BF
:102F2C002608000004090000A5070000D9070000CE
:102F3C004B080000A6060000C40600008208000032
:102F4C00BD070000A1070000BA0800005A070000E6
:102F5C0093060000CE070000C0070000D007000059
:102F6C00990800007D0800001D070000EB0600001A
:102F7C00B0070000020C000073050000C104000043
:102F8C00FB090000C50800007A0600001C050000C3
:102F9C002B0800002C080000AE070000B40700004E
:102FAC006507000086070000E3070000DB07000050
:102FBC00AB070000BC070000A50700009807000045
:102FCC009E070000BE070000A0070000B407000029
:102FDC008A080000D006000062070000C906000045
:102FEC00EA070000660800002C0800002D0700000E
:102FFC009A070000B4070000C4070000BC070000DB
:10300C00A9070000A1070000B1070000A3070000FA
:10301C00D4080000FE060000BA050000110A0000EA
:10302C00E90700000B0700000A0800007B080000FD
:10303C00BB060000F206000001090000D1060000EA
:10304C00C00600006D09000060070000A606000025
:10305C0027090000ED0600007F060000770800003D
:10306C00890700002F070000B607000007080000C2
:10307C00B5070000850300009C0B000059080000F8
:10308C00A5080000A10800003A0600000F07000088
:10309C00E1070000D80700006A070000B507000030
:1030AC00A80700008C070000DC070000BF07000029
:1030BC00AD070000B4070000B5070000B40700001E
:1030CC00B6070000AA070000AD0700007E0700004D
:1030DC00580800009E06000028070000BE070000EC
:1030EC009507000057080000DB070000D50700001B
:1030FC00470700004C070000C5070000AF070000A1
:10310C00B3070000AC070000B1070000A5070000E2
:10311C00C7080000EC060000AF070000CB0700005A
:10312C00F107000064080000D5070000FF0600004E
:10313C005C070000D9070000130800003A080000E3
:10314C00B50700002A07000062070000C407000052
:10315C0012080000D70800000A08000071070000E0
:10316C00F5070000D1070000CC070000270800007D
:10317C00660B0000240500006007000094060000A8
:10318C000D0900002B080000AB0700001906000019
:10319C00F4070000B107000006080000C00700009B
:1031AC009D07000092070000B7070000CA07000047
:1031BC00BF070000A90700008A070000B407000041
:1031CC00B9070000C5070000D1070000A9070000DF
:1031DC009307000055070000C10700008507000099
:1031EC0022070000F0070000D207000020070000B3
:1031FC0008080000170800004A070000C407000078
:10320C00B0070000A4070000BF07000094070000EF
:10321C0023070000000800009C0800005507000070
:10322C00FB06000074070000D70700002A08000006
:10323C001308000052070000000700008707000079
:10324C00EE070000FC0700002308000073070000D5
:10325C00F4060000890800004C080000DF0700009D
:10326C004908000068070000AF060000F7080000DE
:10327C00DA080000060900003F08000051090000B0
:10328C000E070000BB070000F6070000B70800009F
:10329C00B7050000D60500002C090000A5060000AB
:1032AC007A060000E2090000C0070000A706000033
:1032BC009C080000FA0700008B0600002F07000096
:1032CC008E080000D0060000000700005009000026
:1032DC0064060000DC07000084080000B007000052
:1032EC00F60500002E0800009708000017060000E5
:1032FC00540700002D09000023060000C60800003A
:10330C001607000086070000E00700007E0800009A
:10331C00C4070000D00500009D06000089090000CC
:10332C0012080000DC0700008308000010070000F2
:10333C00410600004C080000F707000032070000AF
:10334C00EB080000000800005E060000D507000036
:10335C00CA070000DE070000F40800004208000065
:10336C00780600002D070000340800000A07000052
:10337C00100800005909000017070000360700006C
:10338C00EF07000055070000D906000006080000F2
:10339C00BD070000D2070000CE070000A107000007
:1033AC00B7070000AD070000AD070000B107000033
:1033BC00ED070000A107000088070000BA07000015
:1033CC00B0070000B1070000CD07000003090000A2
:1033DC00E80700002207000006070000190700009C
:1033EC000908000057080000E107000085070000ED
:1033FC00A3070000BE070000C9070000BB070000C0
:10340C00AC070000AB0700009D070000A2090000FC
:10341C00700700003A06000058090000C9070000B8
:10342C00B60600002B0800003C080000CE06000089
:10343C0033070000F20800003B07000005070000FE
:10344C005909000058070000F406000003090000A9
:10345C0081070000C00600006A0700003608000063
:10346C00EB0600006907000047080000C3070000D6
:10347C0061060000320900000B090000F405000091
:10348C00110A0000C9070000B4070000A3070000E0
:10349C006B070000B1070000E0070000DA0700002E
:1034AC00BE070000A8070000BB070000960700003D
:1034BC00B1070000BF070000B5070000B10700000E
:1034CC00C0070000A607000089070000AC08000038
:1034DC0066070000A608000006080000DB070000D5
:1034EC0043070000DA06000075070000870700009C
:1034FC007F080000C2070000BA070000A307000005
:10350C00BB070000AF070000C8070000CB08000095
:10351C00250700006D0600003A070000F6070000C2
:10352C001E0800004A08000079070000060700008A
:10353C007D070000B80700000308000045080000E4
:10354C00A10700001D07000069070000B807000074
:10355C0044080000D40700009D070000220700006B
:10356C005607000043070000D60800007C0400004A
:10357C00100A000088040000AB070000510800008E
:10358C00D9070000740600008A08000087070000B5
:10359C009D070000A4070000B00700009D07000075
:1035AC00A3070000B6070000B9070000D70700000A
:1035BC00B9070000CE0700007B070000AD07000034
:1035CC00B6070000C5070000BA070000B0070000EE
:1035DC0047070000CD070000A50700003D070000CD
:1035EC0011080000170800000E0700001E0800005C
:1035FC001E08000071070000BE070000B3070000A2
:10360C00A8070000BF0700008006000003070000A9
:10361C000A080000D90800001A0800000007000082
:10362C005B0700004E070000DB070000710800007C
:10363C001B080000290700003C070000930700004E
:10364C00E807000012080000100900000D07000038
:10365C008D070000940700006E070000220900008F
:10366C001C080000CC0600002407000052070000D4
:10367C004F060000D508000096070000BB070000AD
:10368C00910700001B08000087070000A40500003C
:10369C007C05000075090000000700009B06000077
:1036AC00B7090000EB070000C1060000CF070000BF
:1036BC00050800006B0600002F070000E80800005A
:1036CC00FB060000F0060000F00800000A080000ED
:1036DC009D0600005C0800005B080000110600005D
:1036EC008D0800009D070000FC060000C7080000C4
:1036FC0051080000900700008F070000120900001D
:10370C00AB080000B20700006D070000B604000013
:10371C0035040000E70A000010070000F206000064
:10372C00B307000033070000B306000000080000D8
:10373C009B0700006E0700005E0700006307000097
:10374C00670700007F0700007907000042070000B0
:10375C0096070000270700006507000068070000B7
:10376C00820700006907000087070000F5050000CC
:10377C00EB03000023060000200700005E08000099
:10378C0042070000A1060000CA0700002B08000039
:10379C00BC070000E606000013070000A9070000A4
:1037AC00B00700002C07000073070000E7070000BB
:1037BC00B4070000D60700005C0700005D0700009E
:1037CC001D080000F8080000D3050000B608000032
:1037DC000D080000AE05000004080000D107000031
:1037EC006F070000990700005307000080050000D8
:1037FC0082060000FE050000EB040000EE0800004D
:10380C00260700000D070000AF0700000E070000A0
:10381C002F070000C1070000750700006E070000AD
:10382C006B0700005D0700005F070000390800000F
:10383C00A007000083070000910700006E0700003E
:10384C004D070000790700007A0700005A070000B6
:10385C006C07000053070000650700006A070000B2
:10386C00620700006307000073070000A405000056
:10387C0031060000A0060000000700007E070000D3
:10388C00660700005A07000062070000720700007C
:10389C00F3070000000800002708000023080000C0
:1038AC00AE070000B70700002D07000063080000FA
:1038BC00F5060000F9070000CA0800003B070000ED
:1038CC00D20700007B07000031070000EB06000068
:1038DC00D5040000A409000010060000190800001F
:1038EC00AA06000012080000E1060000B206000063
:1038FC006D070000DC070000A1070000E0060000D7
:10390C005A070000C9070000B80700000F070000A5
:10391C00DC0700007A060000740800005F07000056
:10392C0060070000F7060000EE0700006F070000BC
:10393C00BD0700007B0700000A07000072070000AB
:10394C00A807000067070000730700005607000077
:10395C00420700004C070000A40700007407000099
:10396C005207000068070000690700002D090000DD
:10397C00FE0800006E060000DD070000F1070000E5
:10398C00A10700006907000029070000720700006A
:10399C0065070000E90700001B0600007208000024
:1039AC00A00700000A070000820700003A0600008A
:1039BC0006060000EA0600004C0700003008000074
:1039CC0069090000E406000026070000F608000064
:1039DC0058080000FE060000E10700006D0700001B
:1039EC00BE06000082070000860A0000550A00008F
:1039FC00C8090000ED0900008C0700008E070000CC
:103A0C00FB0600005D080000620700008407000050
:103A1C007F0700004A070000300700006407000021
:103A2C003B07000072070000B0060000C006000053
:103A3C00C306000068070000640700005007000080
:103A4C00680700007F0700005107000075070000A1
:103A5C0070070000830700007B070000350700009B
:103A6C006C0700007D070000C1090000C7090000B9
:103A7C00BB080000120800003F060000C60800004A
:103A8C005C0700006A0700004707000030070000D1
:103A9C00D60900003006000015070000850700005D
:103AAC00C80700006B0700003D060000AE060000D2
:103ABC009A060000AC060000270700008E070000E5
:103ACC004B0700007E070000E50A0000920500008D
:103ADC005D080000BF070000300700007A070000F7
:103AEC00610700000107000060080000E807000003
:103AFC007407000083070000750700006B070000C7
:103B0C002307000072070000880300008D050000E9
:103B1C00880A000055070000030700002F0700006B
:103B2C008307000088060000C7070000CC070000D0
:103B3C007B070000600700007807000053070000B7
:103B4C00720700006D0700003A070000B007000084
:103B5C00500700005D070000790700009507000082
:103B6C00600700007107000005060000DC03000080
:103B7C00190600002C070000400800002207000076
:103B8C007C060000D4070000260800004D08000049
:103B9C00BE0500005907000026070000940700002E
:103BAC00BC0700009E0700002B080000E207000085
:103BBC00CA070000420700004E070000130800006F
:103BCC00A5080000FC050000F2080000DA0800005F
:103BDC006B050000940700000A080000590700005C
:103BEC005B07000051070000660500009C05000003
:103BFC009C050000BF040000E7070000120700004E
:103C0C00CC0600002007000014070000200700006D
:103C1C0077070000DA070000630700003B0700008D
:103C2C006A07000065070000290800009B070000D8
:103C3C00A1070000B00700007A0700005F07000032
:103C4C0087070000830700006F0700006007000073
:103C5C006F070000740700006B070000640700008A
:103C6C0067070000790700004D060000C906000038
:103C7C0025070000530700007E07000071070000B5
:103C8C00760700006B0700005708000002070000D1
:103C9C0099080000BC0700008C08000069070000B0
:103CAC00B007000064070000410A00006C08000027
:103CBC00F0070000FF08000027070000B307000012
:103CCC00F80600009B0700006D070000B10400001F
:103CDC004E0900003706000039080000810600007C
:103CEC00E7070000B0060000F3070000A50700007E
:103CFC00FA0700005E0700003D0700003B070000CC
:103D0C00BF070000C307000097080000F80600007A
:103D1C006C060000CC0800008D0700002B0700008B
:103D2C00C00600000F080000620700008E070000AC
:103D3C0077070000D906000068070000AB070000F9
:103D4C0055070000490700007C070000ED06000045
:103D5C006207000094070000780700004407000089
:103D6C00700700007307000057090000EC08000002
:103D7C0046060000AA070000FD070000E30700004C
:103D8C0043070000950700007D070000A507000011
:103D9C0077070000EA0500007F0800006B070000B1
:103DAC00A70700003007000022070000AE06000045
:103DBC00810700005A070000EA0600009408000082
:103DCC00D3060000C2060000160900009807000088
:103DDC00E10600005208000058070000D50600005C
:103DEC009B07000013090000B609000079090000C8
:103DFC0091090000B707000001080000F50600005B
:103E0C00040800006307000071070000B4070000FD
:103E1C003107000051070000440700006E07000046
:103E2C004D0700000F07000002070000CC06000041
:103E3C005F070000650700006907000066070000C7
:103E4C00730700004C0700009007000059070000A2
:103E5C008B070000670700003807000051070000BF
:103E6C008C0700000D0B0000D6080000AE08000007
:103E7C004E07000032060000A6080000B70700003D
:103E8C0007070000F4060000E50700008F0900009A
:103E9C00070600004E070000840700006E070000B4
:103EAC009A0700003906000095060000DB060000AA
:103EBC0006070000370700007B07000056070000CC
:103ECC006F070000E50900002906000070080000DB
:103EDC009D0700001807000055070000A50700000B
:103EEC002A0700004D070000A0070000F4060000A0
:103EFC00AB07000046070000A906000040080000C0
:103F0C00A30700006D070000000000001F00000068
:103F1C003F0000005F0000007F0000009F000000D9
:103F2C00BF000000DF000000FF0000001F010000C8
:103F3C003F0100005F0100007F0100009F010000B5
:103F4C00BF010000DF010000FF0100001F020000A4
:103F5C003F0200005F0200007F0200009F02000091
:103F6C00BF020000DF020000FF0200001F03000080
:103F7C003F0300005F0300007F0300009F0300006D
:103F8C00BF030000DF030000FF0300001F0400005C
:103F9C003F0400005F0400007F0400009F04000049
:103FAC00BF040000DF040000FF0400001F05000038
:103FBC003F0500005F0500007F0500009F05000025
:103FCC00BF050000DF050000FF0500001F06000014
:103FDC003F0600005F0600007F0600009F06000001
:103FEC00BF060000DF060000FF0600001F070000F0
:103FFC003F0700005F0700007F0700009F070000DD
:10400C00BF070000DF070000FF0700001F080000CB
:10401C003F0800005F0800007F0800009F080000B8
:10402C00BF080000DF080000FF0800001F090000A7
:10403C003F0900005F0900007F0900009F09000094
:10404C00BF090000DF090000FF0900001F0A000083
:10405C003F0A00005F0A00007F0A00009F0A000070
:10406C00BF0A0000DF0A0000FF0A00001F0B00005F
:10407C003F0B00005F0B00007F0B00009F0B00004C
:10408C00BF0B0000DF0B0000FF0B00001F0C00003B
:10409C003F0C00005F0C00007F0C00009F0C000028
:1040AC00BF0C0000DF0C0000FF0C00001F0D000017
:1040BC003F0D00005F0D00007F0D00009F0D000004
:1040CC00BF0D0000DF0D0000FF0D00001F0E0000F3
:1040DC003F0E00005F0E00007F0E00009F0E0000E0
:1040EC00BF0E0000DF0E0000FF0E00001F0F0000CF
:1040FC003F0F00005F0F00007F0F00009F0F0000BC
:10410C00BF0F0000DF0F0000FF0F0000DF0F0000EB
:10411C00BF0F00009F0F00007F0F00005F0F00001B
:10412C003F0F00001F0F0000FF0E0000DF0E00000D
:10413C00BF0E00009F0E00007F0E00005F0E0000FF
:10414C003F0E00001F0E0000FF0D0000DF0D0000F1
:10415C00BF0D00009F0D00007F0D00005F0D0000E3
:10416C003F0D00001F0D0000FF0C0000DF0C0000D5
:10417C00BF0C00009F0C00007F0C00005F0C0000C7
:10418C003F0C00001F0C0000FF0B0000DF0B0000B9
:10419C00BF0B00009F0B00007F0B00005F0B0000AB
:1041AC003F0B00001F0B0000FF0A0000DF0A00009D
:1041BC00BF0A00009F0A00007F0A00005F0A00008F
:1041CC003F0A00001F0A0000FF090000DF09000081
:1041DC00BF0900009F0900007F0900005F09000073
:1041EC003F0900001F090000FF080000DF08000065
:1041FC00BF0800009F0800007F0800005F08000057
:10420C003F0800001F080000FF070000DF07000048
:10421C00BF0700009F0700007F0700005F0700003A
:10422C003F0700001F070000FF060000DF0600002C
:10423C00BF0600009F0600007F0600005F0600001E
:10424C003F0600001F060000FF050000DF05000010
:10425C00BF0500009F0500007F0500005F05000002
:10426C003F0500001F050000FF040000DF040000F4
:10427C00BF0400009F0400007F0400005F040000E6
:10428C003F0400001F040000FF030000DF030000D8
:10429C00BF0300009F0300007F0300005F030000CA
:1042AC003F0300001F030000FF020000DF020000BC
:1042BC00BF0200009F0200007F0200005F020000AE
:1042CC003F0200001F020000FF010000DF010000A0
:1042DC00BF0100009F0100007F0100005F01000092
:1042EC003F0100001F010000FF000000DF00000084
:1042FC00BF0000009F0000007F0000005F00000076
:10430C003F0000001F000000000000000F00000034
:10431C001F0000002F0000003F0000004F000000B5
:10432C005F0000006F0000007F0000008F000000A5
:10433C009F000000AF000000BF000000CF00000095
:10434C00DF000000EF000000FF0000000F01000084
:10435C001F0100002F0100003F0100004F01000071
:10436C005F0100006F0100007F0100008F01000061
:10437C009F010000AF010000BF010000CF01000051
:10438C00DF010000EF010000FF0100000F02000040
:10439C001F0200002F0200003F0200004F0200002D
:1043AC005F0200006F0200007F0200008F0200001D
:1043BC009F020000AF020000BF020000CF0200000D
:1043CC00DF020000EF020000FF0200000F030000FC
:1043DC001F0300002F0300003F0300004F030000E9
:1043EC005F0300006F0300007F0300008F030000D9
:1043FC009F030000AF030000BF030000CF030000C9
:10440C00DF030000EF030000FF0300000F040000B7
:10441C001F0400002F0400003F0400004F040000A4
:10442C005F0400006F0400007F0400008F04000094
:10443C009F040000AF040000BF040000CF04000084
:10444C00DF040000EF040000FF0400000F05000073
:10445C001F0500002F0500003F0500004F05000060
:10446C005F0500006F0500007F0500008F05000050
:10447C009F050000AF050000BF050000CF05000040
:10448C00DF050000EF050000FF0500000F0600002F
:10449C001F0600002F0600003F0600004F0600001C
:1044AC005F0600006F0600007F0600008F0600000C
:1044BC009F060000AF060000BF060000CF060000FC
:1044CC00DF060000EF060000FF0600000F070000EB
:1044DC001F0700002F0700003F0700004F070000D8
:1044EC005F0700006F0700007F0700008F070000C8
:1044FC009F070000AF070000BF070000CF070000B8
:10450C00DF070000EF070000FF0700000F080000A6
:10451C001F0800002F0800003F0800004F08000093
:10452C005F0800006F0800007F0800008F08000083
:10453C009F080000AF080000BF080000CF08000073
:10454C00DF080000EF080000FF0800000F09000062
:10455C001F0900002F0900003F0900004F0900004F
:10456C005F0900006F0900007F0900008F0900003F
:10457C009F090000AF090000BF090000CF0900002F
:10458C00DF090000EF090000FF0900000F0A00001E
:10459C001F0A00002F0A00003F0A00004F0A00000B
:1045AC005F0A00006F0A00007F0A00008F0A0000FB
:1045BC009F0A0000AF0A0000BF0A0000CF0A0000EB
:1045CC00DF0A0000EF0A0000FF0A00000F0B0000DA
:1045DC001F0B00002F0B00003F0B00004F0B0000C7
:1045EC005F0B00006F0B00007F0B00008F0B0000B7
:1045FC009F0B0000AF0B0000BF0B0000CF0B0000A7
:10460C00DF0B0000EF0B0000FF0B00000F0C000095
:10461C001F0C00002F0C00003F0C00004F0C000082
:10462C005F0C00006F0C00007F0C00008F0C000072
:10463C009F0C0000AF0C0000BF0C0000CF0C000062
:10464C00DF0C0000EF0C0000FF0C00000F0D000051
:10465C001F0D00002F0D00003F0D00004F0D00003E
:10466C005F0D00006F0D00007F0D00008F0D00002E
:10467C009F0D0000AF0D0000BF0D0000CF0D00001E
:10468C00DF0D0000EF0D0000FF0D00000F0E00000D
:10469C001F0E00002F0E00003F0E00004F0E0000FA
:1046AC005F0E00006F0E00007F0E00008F0E0000EA
:1046BC009F0E0000AF0E0000BF0E0000CF0E0000DA
:1046CC00DF0E0000EF0E0000FF0E00000F0F0000C9
:1046DC001F0F00002F0F00003F0F00004F0F0000B6
:1046EC005F0F00006F0F00007F0F00008F0F0000A6
:1046FC009F0F0000AF0F0000BF0F0000CF0F000096
:10470C00DF0F0000EF0F0000FF0700003108000072
:10471C006308000096080000C8080000FA080000B2
:10472C002B0900005D0900008E090000C009000083
:10473C00F1090000210A0000510A0000810A000062
:10474C00B10A0000E00A00000F0B00003D0B000056
:10475C006A0B0000980B0000C40B0000F00B00006B
:10476C001C0C0000460C0000710C00009A0C0000A0
:10477C00C30C0000EB0C0000120D0000380D000003
:10478C005E0D0000830D0000A70D0000CA0D000097
:10479C00EC0D00000D0E00002E0E00004D0E000062
:1047AC006C0E0000890E0000A50E0000C10E00006A
:1047BC00DB0E0000F50E00000D0F0000240F0000B2
:1047CC003A0F00004F0F0000630F0000750F000040
:1047DC00870F0000970F0000A60F0000B40F000019
:1047EC00C10F0000CD0F0000D70F0000E00F00003C
:1047FC00E80F0000EF0F0000F50F0000F90F0000AC
:10480C00FC0F0000FE0F0000FF0F0000FE0F000069
:10481C00FC0F0000F90F0000F50F0000EF0F000077
:10482C00E80F0000E00F0000D70F0000CD0F0000D4
:10483C00C10F0000B40F0000A60F0000970F00007E
:10484C00870F0000750F0000630F00004F0F000072
:10485C003A0F0000240F00000D0F0000F50E0000B1
:10486C00DB0E0000C10E0000A50E0000890E00003A
:10487C006C0E00004D0E00002E0E00000D0E000000
:10488C00EC0D0000CA0D0000A70D0000830D000008
:10489C005E0D0000380D0000120D0000EB0C000046
:1048AC00C30C00009A0C0000710C0000460C0000B8
:1048BC001C0C0000F00B0000C40B0000980B000057
:1048CC006A0B00003D0B00000F0B0000E00A00001B
:1048DC00B10A0000810A0000510A0000210A000000
:1048EC00F1090000C00900008E0900005D090000FC
:1048FC002B090000FA080000C80800009608000008
:10490C006308000031080000FF070000CD0700001D
:10491C009B07000068070000360700000407000032
:10492C00D3060000A1060000700600003E06000041
:10493C000D060000DD050000AD0500007D05000042
:10494C004D0500001E050000EF040000C10400002E
:10495C0094040000660400003A0400000E040000F9
:10496C00E2030000B80300008D03000064030000A4
:10497C003B03000013030000EC020000C602000021
:10498C00A00200007B02000057020000340200006D
:10499C0012020000F1010000D0010000B101000082
:1049AC009201000075010000590100003D0100005A
:1049BC002301000009010000F1000000DA000000F2
:1049CC00C4000000AF0000009B0000008900000044
:1049DC007700000067000000580000004A0000004B
:1049EC003D00000031000000270000001E00000008
:1049FC00160000000F000000090000000500000078
:104A0C000200000000000000000000000000000098
:104A1C000200000005000000090000000F0000006B
:104A2C00160000001E0000002700000031000000EE
:104A3C003D0000004A000000580000006700000024
:104A4C0077000000890000009B000000AF00000010
:104A5C00C4000000DA000000F100000009010000B1
:104A6C00230100003D010000590100007501000008
:104A7C0092010000B1010000D0010000F101000022
:104A8C001202000034020000570200007B020000FA
:104A9C00A0020000C6020000EC020000130300009C
:104AAC003B030000640300008D030000B80300000A
:104ABC00E20300000E0400003A040000660400004B
:104ACC0094040000C1040000EF0400001E05000067
:104ADC004D0500007D050000AD050000DD05000062
:104AEC000D0600003E06000070060000A106000046
:104AFC00D30600000407000036070000680700001A
:104B0C009B070000CD070000010000001000000012
:044B1C000024F4007D
:04000005080022A924
:00000001FF
